:20000000483F002055A5000001CA011001CA011001CA011001CA011001CA011001CA011017
:1C00200001CA011001CA011001CA011001CA011001CA011001CA01103FCA011082
:20003C0030B50546ADF1140D0CF0F8F8002832D00AF0AEFB002830D02148224C01682088EC
:20005C00D8B121480068014217D020480068014204D11F480068008801420ED01F4840F207
:20007C0007430468009312A20192002302931A4B1A88184B18680AA3A0470C2008F092FEEA
:20009C0058B1012D14BF0020112003A98DF80C000A200BF07DFB0CF05DFA05B030BDC04614
:2000BC0053656E736F724D7075393235302E63006D61672062797061737320706173730059
:2000DC0030E6000076E60000400500003C050000440500004CE600008405000044E60000DE
:0400FC0009F030BE19
:200100003C000000000000000000000034010000000000000000000001000000000000006D
:1C01200000000000000000000000000001000000000000000800000000000000BA
:20013C00340000000000000000000000680100000000000000000000010000000000000005
:14015C00010000000000000000000000080000000000000086
:2001700030000000000000000000000098010000040000000000000001000000FFFFFFFFA5
:10019000FF00000001000000080000000000000057
:2001A0002C0000000000000000000000C4010000040000000000000001000000FFFFFFFF4D
:0C01C000FFFFFFFF08000000000000002F
:2001CC0034050000E401000099A1011095A70110A5C2011009B2011045B80110000000000B
:0801EC00000000002E000000DD
:2001F400280000000000000000000000140200000000000000000000FFFFFFFF00000000B1
:080214000800000000000000DA
:20021C00300500003002000069C201106DC101101FC2011095BA011000000000000000008E
:04023C002C00000092
:20024000300500005402000075C20110A9B601109DBF011049B601100000000000000000DE
:040260002D0000006D
:200264002400000000000000000000008002000000000000000000000000000008000000CC
:040284000000000076
:20028800240000000000000000000000A40200000000000000000000000000000800000084
:0402A8000000000052
:2002AC00240000000000000000000000C8020000000000000100000000000000080000003B
:0402CC00000000002E
:2002D00000000000201B0020040000000000000000000000200000007001000030000000EE
:2002F0001C020000281B00200400000000000000000000000C000000300400001800000011
:2003100040020000301B002004000000000000000000000024000000480400001800000094
:2003300000000000381B002004000000000000000000000010000000A00100002C00000059
:20035000CC010000401B002004000000000000000000000020000000640200002400000097
:20037000FFFFFFFF481B002004000000000000000000000028000000880200002400000014
:20039000FFFFFFFF501B0020040000000000000000000000580000003C01000034000000F9
:2003B000FFFFFFFF581B00200400000000000000000000001000000060040000180000000E
:2003D000FFFFFFFF601B00200400000000000000000000001C000000AC0200002400000084
:2003F000FFFFFFFF681B002004000000000000000000000038000000F401000028000000F5
:20041000FFFFFFFF701B002004000000000000000000000054000000000100003C00000090
:1804300018000000000000000000000040040000080000000000000050
:1804480018000000000000000000000058040000080000000000000020
:18046000180000000000000000000000700400000800000000000000F0
:080478000200000004E6000090
:040480000068704759
:040484000100000073
:0404880000008C0FD5
:04048C000000BC0FA1
:040490003200000036
:040494000100000063
:04049800AC1A00207A
:04049C00000200005A
:0404A0000000000058
:0404A40001CA011078
:0404A8000000000050
:0404AC00000000004C
:0404B0000800000040
:0404B40000007612BC
:0404B80060190020A7
:0404BC00010000003B
:0404C000C41A00203A
:0404C400080000002C
:0404C8000000000030
:0404CC00000000002C
:0404D0000000000028
:0404D4000000000024
:0404D8000000000020
:0404DC00010000001B
:0404E000FC190020E3
:0404E400060000000E
:0404E800010000000F
:0404EC00C81800200C
:0404F0000000000008
:0404F4000000000004
:0404F80000020000FE
:0404FC0000000000FC
:02050000704742
:020502002800CF
:020504000100F4
:020506002400CF
:020508002C00C5
:02050A002D00C2
:02050C002E00BF
:02050E000100EA
:0105100001E9
:0805140003000000D0E5000027
:08051C000000000000000000D7
:040524000000930D33
:040528000000AD0D15
:04052C0087C401106F
:04053000380500008A
:040534003805000086
:0405380000000000BF
:04053C0090610000CA
:0405400090610000C6
:0405440000000000B3
:04054800C41A0020B1
:04054C00B7C2000032
:040550002000000087
:0405540020E500009E
:04055800DCE30000E0
:04055C000DC30110BA
:0405600093BA00004A
:04056400EFBD0000E7
:0405680099C801101D
:04056C009BC8011017
:040570000000000087
:0405740080C800003B
:0405780024E2000079
:04057C003CE200005D
:040580000CE2000089
:020584000280F3
:020586000380F0
:02058800C0179A
:02058A0001006E
:01058C00016D
:040590000000000067
:040594000000000063
:04059800000000005F
:04059C00000000005B
:0405A000FDC6000094
:0405A400FDAC0000AA
:0405A8006DBB000027
:0405AC0021B1000079
:0405B00083B2000012
:0405B40085B5000009
:0405B8001D8F000093
:0405BC00C1C40000B6
:0405C000419800005E
:0405C40011C8011049
:0405C80021C8011035
:0405CC000800000023
:0405D0002400000003
:0405D400180000000B
:0405D80028000000F7
:0405DC0020000000FB
:0405E0003C000000DB
:0405E4000C00000007
:0405E80034000000DB
:2005EC002DE9F04FADF1940D00F0DCFD9548048895480668954897490268954806EA0207E1
:20060C000068129706EA000713970F68924911940C889249096815919149096816919149D3
:20062C000968179101EA0205014019918E49189509681A9101EA020501401B958B481E92B2
:20064C0000681D90B4481C9100F19901A7311F9100F5A071BC392091A1A114910820ADF85D
:20066C0020000A25ADF822504FF0FF33099308A80AF0E0FB0028F1D100200F900825ADF8FB
:20068C0030500923ADF832300CA80AF0D3FBDDF838C0CDF884C00028CDF83CC040F04D8162
:2006AC00BDF834004FF00108102840F03E819A489DF836100078884240F037816546288894
:2006CC004FF6FF71814200F091802B78913B70D01F3B40F02A816878119A162840D0287937
:2006EC007E2824D07F2810D0131C5CD0129B002B59D0139B13B93888064254D040F29B40BE
:20070C0000907BA3019328790FE0002A4BD0129B002B48D0139B13B93888064243D040F2FF
:20072C009640009067A301932889314610E01799002A38D0189B002B35D0199B13B938888C
:20074C00014230D040F291400090BCA30193287A0290DDF858C0149B15982246E04722E0B6
:20076C001A999AB11B9B8BB11C9B13B9388801420CD04FF48F609EA30090DDF858C0019397
:20078C002879149B029015982246E047688808210AF06CFF38B9404605F008FC5E484FF05C
:2007AC0000084561C1E0297905F108000BF0BEFBBBE068780E2840F0B880119D002D00F0A6
:2007CC00B480129D002D00F0B080139D1DB93888064200F0AA8040F25B40C5A5009000224C
:2007EC00DDF858C001953146029265E068880009C0F09B8048484569002D00F096808078ED
:20080C004549B5F802B0401C887095F804A010200BF0C8F905F10809051C29D002211522F3
:20082C000BF041FEA5F808B085F80AA0C5F80C900BF0C8F9BC4A29460AF03EF90546162DAD
:20084C0017D11AE076E6000030E60000400500003C05000044050000840500004CE60000AE
:20086C0044E600002CE6000034E6000048E60000042529484069042D50D1119D1A99002DC5
:20088C0053D01B9D002D50D01C9D15B9388801424BD021484FF49A6240690092BDA50195A4
:2008AC0000791D4B0290987803900022049215460595DDF874C00692149B15982246E047DD
:2008CC0033E0C0464D54552053697A65206368616E67653A20256420627974657300C0468C
:2008EC0070726F6A6563745F7A65726F2E6300C052656365766965642047415454204D653C
:20090C0073736167652E204F70636F64653A2030782530327800C0460802002040880021F6
:20092C000AF0A4FE284605F041FB0F9D2DB1B8F1000F02D021980BF029FBA24800690BF036
:20094C0095FF00287FF48AAE9E4800690BF08AFF83469BF8081011980BF10905002900F011
:20096C004982491E00F09881491E00F0D380491E00F0A383491E00F09B83491E7CD0491E7A
:20098C0040F09F838F48B44A014640790D461346401CC0B248713130C0B21121A87140F2A1
:2009AC00CD25587105F13A0003F0CEFB119DA5B1129D95B1139D15B9388806420DD0B54A29
:2009CC0040F2CD20ADA5DDF858C0149B009031460195159802922246E04700208DF84000AC
:2009EC0005468DF8415010A806F08EF860E3C0464F7574676F696E67205246204649464FC5
:200A0C002066756C6C2E2052652D7363686564756C65207472616E736D697373696F6E200E
:200A2C006F66206D73672077697468206F70636F64652030782530327800C046466C6F7793
:200A4C0020636F6E74726F6C2076696F6C617465642E204F70636F6465206F66206F6666F9
:200A6C00656E64696E6720415454206D73673A2030782530327800C00BF10905F0B1129B6C
:200A8C00E3B1139B13B93888064217D0AB78002B0CBFA0A0A2A040F2BA2100220091AEA3A1
:200AAC000193DDF874C0029011460392149B049115980592224606913146E047B5F80080BD
:200ACC0010200BF06FF8051C00F0FB82012113220BF0E9FCA5F808800020A8720246EA60C2
:200AEC000BF070F8A94A294609F0E6FFE9E2C04648434920436F6D6D616E6420436F6D7014
:200B0C006C657465204576656E74207265636569766564002B8841F210115B1A06D0103BF9
:200B2C0000F0A480CDE2C04697C400002B79B5F8028005F10509002B46D05D1E17D017995B
:200B4C00002800F0BE82189D002D00F0BA82199D1DB93888014200F0B4824FF48C7000909F
:200B6C0099A50195DDF858C0029393A3B1E1A04D002805F10405A5F1030A47D0129B002BA5
:200B8C0044D0139B13B9388806423FD04FF48A70B7A228E05265747279696E67206D65734D
:200BAC00736167652077697468206F70636F6465203078253032782E20417474656D70741F
:200BCC002025640008020020894DDFF824A2AD1CE0B1129BD3B1139B13B93888064215D0D1
:200BEC004FF4867099A200909AA300210193DDF874C002920B461598CDF80C801A46049112
:200C0C00314605936CA306922246E047B8F1020F02DAB8F1000F21D1119D1E981799002D02
:200C2C0000F04F82014200F04C82199D1DB93888014200F046824FF492700090B0A50195DF
:200C4C00CDF80880012303931A460492002505952B46069358A33AE19C02002050464946C9
:200C6C00424607F0C6F9A5F800802AE2287969886D1D2A4602F0EAFD23E2C04663686172F3
:200C8C00676520616476657274446174613A20257300C046A10200202B880FF29C2E0FF222
:200CAC00AC2CB0A2B3F5895327D0103B40F00982B5F8051049B1491E04D0491E08BFCDF893
:200CCC0088E003E0CDF888C000E022922979012940F0F781002800F0F481129D002D00F04F
:200CEC00F081139D1DB93888064200F0EA81229940F2344079A580A2DDE0B5F8051099B124
:200D0C00491E04D0491E08BFCDF88CE00DE0CDF88CC00AE0446973706C6179696E6700C071
:200D2C0053656E64696E670023922D7985B36D1E40F0C781002800F0C481129D002D00F020
:200D4C00C081139D1DB93888064200F0BA8140F2D730B4A22CE0C046426F6E644D67722023
:200D6C005265717565737465642070617373636F64652E2057652061726520257320706138
:200D8C007373636F646520253036640089C40000002800F09681129D002D00F09281139DAC
:200DAC001DB93888064200F08C814FF4737097A223994AA597A37FE06C65645F7365727655
:200DCC006963652E6300C046536574506172616D657465723A20506172616D657465722057
:200DEC00232564206E6F742076616C69642E00C01C1800202B8841F210115B1A00F0BB80B1
:200E0C00203B40F05E812B79002B34D05B1E40F05881002800F05581129B002B00F051817F
:200E2C00139B1BB93888064200F04B8140F207400090AAA3019368790290A8790390E879EE
:200E4C00049000220592114606913EE04C45443000C046C0536574506172616D6574657295
:200E6C00203A202573206C656E3A20256400C0464C45443100C0DDF87C8000212822404684
:200E8C0007F074FE6D1D27222946404607F0B1F8119D002D00F01581129D002D00F01181B6
:200EAC00139D1DB93888064200F00B819A494FF48060A9A5AFA2B1A30090019502930392D3
:200ECC000491002505952A460692149B3146DDF874C015982246E047F3E0C0464343434459
:200EEC00204368616E6765206D73673A2025732025733A20257300C053747265616D00C091
:200F0C004C656E677468206F75747369646520626F756E64733A204C656E3A202564204DD2
:200F2C00696E4C656E3A202564204D61784C656E3A2025642E00C046496E6469636174692B
:200F4C006F6E7320656E61626C6564004E6F74696669636174696F6E7320656E61626C6569
:200F6C006400C0464E6F74692F496E642064697361626C656400A978209A681D08F0B4F9BA
:200F8C0005F105092D79119B0FF2002A0FF20028002D4BD06D1E40F094801D1C1CD0129DB0
:200FAC00D5B1139D15B93888064215D079494FF4667069A5009065A3794A0195DDF874C051
:200FCC000293002515980392149B04912A460595314606922246E0476F4899F80020C0698C
:200FEC000A2109F0F1FC119D002D6AD0129D002D67D0139D15B93888064262D099F8005013
:20100C0005B1C2464FF468704CA344E0425554544F4E3000427574746F6E20536572766927
:20102C00636500C0425554544F4E3100E3B1129DD5B1139D15B93888064215D0554940F20B
:20104C00893045A5009041A3544A0195DDF874C00293002515980392149B04912A460595E6
:20106C00314606922246E0474B4899F80020C0690F2109F0A9FC119D1DB3129D0DB3139DEE
:20108C0015B9388806421CD099F8005005B1C24640F2913021A3009024A501950293CDF8E3
:2010AC000CA00022049211460591154606950CE70BF1090005F028FD03E09BF8090002F05A
:2010CC00E3FE0820ADF82800CDF82CB00525ADF82A500AA809F0AEFE2FE4C04656616C753C
:2010EC0065204368616E6765206D73673A20446174612053657276696365205374726561CE
:20110C006D3A20253032783A253032783A253032782E2E2E00C046C0480300201B5B3331F6
:20112C006D4C4544301B5B306D00C0465475726E696E6720257320257300C0461B5B3332E0
:20114C006D4C4544311B5B306D00C0464C454420536572766963650056616C756520436869
:20116C00616E6765206D73673A2025732025733A20257300537472696E6700C04461746114
:20118C00205365727669636500C046C06F6666006F6E00C08C02002008020020580E000076
:2011AC007C0E00002DE9F04F0820ADF1B40DADF830000120ADF832000CA809F03BFE8A4C34
:2011CC009DF8340020700E98E0608448DFF814A2016883480FF25028008829912A90D8B139
:2011EC0050460068014217D0BF480068014204D1BE480068008801420ED0BF4805684FF466
:20120C00C3778DA600230097BA4F0196B84E02933A8830684346A847002504F1480625629F
:20122C00304629460BF01AFB04F1600004F16C01266106F0C3FF5146DFF8C0A2D1F800B06E
:20124C00E061F8B950462A9F0168CFB111EA0B0F16D0A5480068014204D1A4480068008804
:20126C0001420DD0A44840F2971783A306680097A04F01939E4B02953A8818684346B04786
:20128C000BF0E8FA04F1540004F1780106F096FFA06100BB50462A9F0168CFB111EA0B0F0A
:2012AC0016D091480068014204D190480068008801420DD090484FF4CF7778A3066800977A
:2012CC008C4F01938A4B02953A8818684346B0470BF0C0FAA0698A490BF02CF9F8B1504675
:2012EC002A9F0168CFB111EA0B0F16D07E480068014204D17D480068008801420DD07E4854
:20130C004FF4D2776DA3066800977A4F0193784B02953A8818684346B0470BF09BFA03A86C
:20132C002946242208230BF091FA774EDFF8D491AA464FF47A77322504F1F80003AB32688A
:20134C00CDF824A0B7FBF2F18AB26A4349460BF079FA04203168099003AB04F58E70B7FBD0
:20136C00F1F189B24D432A4649460BF06BFA4FF0010940F205308DF89E900DF19E02ADF8AF
:20138C004CA0494602F0E0FE40F20630022113AA02F0DAFE621C4FF44270494602F0D4FE1E
:2013AC0004F1940240F20730112102F0CDFE2A9804F19405002800F0BA80299810EA0B0FC7
:2013CC0000F0B58048482999006801420ED1474800680088014200F0AA8007E030E6000027
:2013EC0076E6000040050000080200205146202204F1D80007F0BAFB3D4E3E483E4B07889B
:20140C0030681E682B9050462A5C401CC0B22B5C4119092B18BF082B01D11F2A76DB121848
:20142C00D0B22028F0DB76E070726F6A6563745F7A65726F2E6300C0496E697469616C691B
:20144C007A696E67207468652075736572207461736B2C2068617264776172652C20424C41
:20146C004520737461636B20616E642073657276696365732E00C0464572726F7220696ED9
:20148C00697469616C697A696E6720626F617264204C45442070696E7300C0464572726F77
:2014AC007220696E697469616C697A696E6720627574746F6E2070696E7300C04572726F95
:2014CC0072207265676973746572696E6720627574746F6E2063616C6C6261636B206675C7
:2014EC006E6374696F6E00C03C050000440500004CE600008405000044E600002CE6000014
:20150C0041750000ED87000020E600008D48491C521E06F06EFD8B4B4FF4EB707CA529992D
:20152C0000903A4601952B9802934346B0470620A02109F065FC0720A02109F061FC08207A
:20154C00A02109F05DFC0920A02109F059FC48461E2109F055FCCDF848A04F468DF89F9027
:20156C0050468DF8A09004218DF8A10012AA8DF8A2704FF4816009F029FC4FF48060494682
:20158C000DF19F0209F022FC40F20240494628AA09F01CFC40F2034049460DF1A10209F005
:2015AC0015FC40F2064049460DF1A20209F00EFC032009F07BFD042009F078FD5E485F4AED
:2015CC00132109F06BF95E49032009F057FAAD4DAD4A052105F10C0009F060F92A9829996B
:2015EC000FF2E82AC8B111EA0B0F16D0C0480068014204D1BF480068008801420DD0C448AD
:20160C000568DA2705260097C24BCDF804A0C24F02961A883868B9A3A84726780AF052F800
:20162C00BA490028C8602ED00AF0ACFA0AF04AF8B649086138B30AF0A5FAB448C24A072155
:20164C00143009F02BF92A982999D0B111EA0B0F17D0A7480068014204D1A64800680088CF
:20166C0001420ED0AA4840F20117056800970723CDF804A0A74F0293A74B3A881868B3A355
:20168C00A847A2480670C64D08200426ADF83C0027782878ADF83E60800010900FA809F057
:2016AC00C9FB00280CBF11980020BE49A8460028C86049D00AF066FABA48BB4A06214C303C
:2016CC0009F0ECF82A98DDF8A4900546E0B119EA0B0F19D08648006819EA000F05D1854889
:2016EC000068008819EA000F0ED089480668EE23062200938749CDF804A0874B02920A88C2
:20170C001868494696A3B047A64807701FE0C0464E616D6520696E20616476657274446151
:20172C0074612061727261793A201B5B33336D25731B5B306D00C04618140020B8E500004C
:20174C0095C60000E00200202A9DDDF8A4904D4904F130000FF2182A8860DDB119EA0B0FBF
:20176C0018D06349096819EA010F05D161490968098819EA010F0DD06549E9270E68009708
:20178C00644BCDF804A0644902901A8808685BA34946B0475D4904F138008860E5B119EAFC
:2017AC000B0F19D05249096819EA010F05D151490968098819EA010F0ED055494FF48977B7
:2017CC000E680097534BCDF804A0534902901A8808685EA34946B047724904F1400088604A
:2017EC00DDB119EA0B0F18D04149096819EA010F05D140490968098819EA010F0DD044495E
:20180C00FF270D680097444BCDF804A0414E029018683288494652A3A8470DF14E00002157
:20182C00282207F0A3F961490DF17600282206F0E0FB002001210DF14E0202F007F80120E4
:20184C000DF14E02014602F001F8002028210DF1760201F0BBFC012014210DF14E0201F0E0
:20186C00B5FC98F8020058BB04F1240098F8016098F80350C8F8240018200AF093F9071C54
:20188C001ED003E01C18002088E30000042100220AF0EAFC30460AF0E4F838727D72002080
:2018AC00B87208F14806FE6008F158033B6108F120027A610AF086F93D4A394609F0FCF8FB
:2018CC000C200AF06FF9071C33D015E05265676973746572656420736572766963652C20E8
:2018EC002564206174747269627574657300C0463C0500004405000010E0C0466C65645FD2
:20190C00736572766963652E6300C0469817002044E60000840500004CE600000121042237
:20192C000AF0C1FD2834BC600AF04CF9394609F00BFF0120102109F0D3FB0220102109F045
:20194C00CFFB2DB0BDE8F08F04E30000627574746F6E5F736572766963652E6300C046C086
:20196C00646174615F736572766963652E6300C0526567697374657265642063616C6C62F4
:20198C0061636B7320746F206170706C69636174696F6E2E2053747275637420257000C09A
:2019AC00081000205816002030E30000A5E20000A1C600002DE9F04FADF12C0D07F00CFF26
:2019CC00002501220223AF48AF49009508F064FAB64C04F1280004F11C0106F0EFFBB449A6
:2019EC0060610AF0A7FD2846A0610AF0A3FC09F033FD06F0B1FEDFF8BCB2DFF8C4A2DFF84D
:201A0C00C892DFF8C882AC4DF0B9594628880968D0B1AA480068014216D050460068014298
:201A2C0004D1A8480068008801420DD0B64804689D2797A3002200974E460193474602925B
:201A4C003A883068B7A3A0470AF0F0FB002700B1012759460968002F08912F88099734D0C7
:201A6C0008F09EFE0C2007F0A5F99049FF2001220F4608710020391D0AF0E4FC28B3099850
:201A8C000899E0B18D480068014218D050460068014204D18B480068008801420FD09A48C3
:201AAC0040F22F47BCA604680097804D0196287943464E4602901A883068B3A3A0477B481F
:201ACC000079482808BF012000D0002083460AF049FD099808998DF81CB0D8B177480068ED
:201AEC00014217D050460068014204D175480068008801420ED08448A72704680097ABA6DE
:201B0C0001969DF81C0045464E4602902A88306884A3A0470AF08AFB002800F09C8008F0BD
:201B2C003FFE002800F099800C2007F043F9002800F093806148099EDDF820B00568002E11
:201B4C0037462C4641D01BEA040F1AD0504600681BEA000F05D15B48006800881BEA000FE8
:201B6C000FD069484FF46E73B5A206680093002101924346029149461A88086882A3594618
:201B8C00B04717B31BEA040F1FD0504600681BEA000F05D14B48006800881BEA000F14D00E
:201BAC0000200DF11E0101220AF04CFC564940F2BA37A8A60C680097434601964E46029016
:201BCC001A883068594670A3A0470F208DF81E000DF11E010A2009F0E3FDA748006842F2A9
:201BEC001071B1FBF0FB58460AF028FE2F4C2F49102003220E310AF025FC0E3458B120787E
:201C0C002A498030088160780F4680307881A0783E468030B08109980899C8B1294217D0AC
:201C2C0050460068014204D126480068008801420ED03548046840F2CE3789A500230097FB
:201C4C004E460195474602933A8830684EA3A04758460AF0F3FD0AF085FC0120FEF7E8F900
:201C6C0009980899002841D01448006801423DD05046006801422BD11248006800880142FF
:201C8C0034D003E0582900207DC5000020E0C04653656E736F724D70753932353020526515
:201CAC007374204572726F7200C046C09819002011C2000030E6000076E6000040050000E6
:201CCC003C050000440500004CE60000840500000D480468AA27B5A5002300974E460195E3
:201CEC00474602933A8830680EA3A047682007F061F8092007A98DF81C006B2009F050FDA1
:201D0C00002800F04E8101E044E600002F208DF81C0007A96C2009F043FD002800F0418186
:201D2C0007E0C04653656E736F725461736B2E6300C001208DF81C0007A91D2009F030FD77
:201D4C00002800F02E81FFE74025382007A98DF81C5009F025FD002800F02381C0208DF830
:201D6C001C0007A9692009F01BFD002800F01981FFE74F208DF81C0007A91F2009F010FD54
:201D8C00002800F00E8118E053656E736F724D7075393235302E63006D61672077686F20C8
:201DAC00616D2069203D20257800C046726574752076616C203D202564000B208DF81C00AB
:201DCC0007A91E2009F0ECFC002800F0EA8018208DF81C0007A91C2009F0E2FC002800F0F2
:201DEC00E08029208DF81C0007A96B2009F0D8FC002800F0D6800AF0B5FB0AF00DFA0998CB
:201E0C000899D0B185480068014216D050460068014204D182480068008801420DD081487D
:201E2C000468E02765A5002300974E460195474602933A8830687C4BA04700244E466BE008
:201E4C0073656E736F724D6167496E697420646F696E6700726561642030203D20257800FC
:201E6C0073656E736F724D6167496E6974207265737461727400C04620E600000AF072FB7B
:201E8C000AF0CAF908F0C4FE83460AF0D3FC099F401BB946002F3FD0604A0899126811EA2D
:201EAC0002051CD052461268114204D15C4A12681288114213D0564A4FF49D7317680093F4
:201ECC0043A30193029000220392CDF810B00594134606933068B8F80020534BB847B9F174
:201EEC00000F19D00899BDB1DAF80000014204D14B480068008801420ED04A484FF49F7756
:201F0C003AA3056800970022019347463346029218683A88444BA8473E484FF0FF310AF0D5
:201F2C0085FC09980899C8B13C480068014215D0DAF80000014204D13948006800880142A7
:201F4C000CD03848ED27056800972EA3019300220292B8F800203068334BA847641C06206B
:201F6C000DF11D010122A4B28DF81D4008F030FB0AF060FC0AF05EFC0546642C82DD2B4864
:201F8C002549406908F00CFE682006F013FF402007A98DF81C00382009F002FC00287FF4F1
:201FAC006DAF0AF0DFFA0BB0BDE8F08F6D616720696E697420656E6400C046C07374617267
:201FCC0074206D61696E207768696C6500C046C0674D5055696E747374617475203D256402
:201FEC002C2025642C20257820256400636865636B2074686520674D5055696E7473746103
:20200C00747573007265636520706F737400C04648E60000C40200200700008040050000ED
:20202C004405000044E60000301D0000981900202DE9F04F0120ADF15C0DADF81A00082798
:20204C00ADF8187006A808F0F5FE00263546C04C8DF854509DF81C006070A6700898E06160
:20206C004FF6FF70A082384609F09CFD5FEA00080CD0012112220AF016FA09F0A3FD15A98A
:20208C000123D94A0091414608F034FD9DF854000121DFF85883207032463346009104F1E8
:2020AC00A800414607F0F8FE022104F1CC00324633460091414607F0EFFE042104F1F0001D
:2020CC00324633460091414607F0E6FE042031461022E07004F1480006F048FD04F158002E
:2020EC003146102206F042FD2562267266720720E67204F148021021A072022008F0A2FF43
:20210C0004F158020320102108F09CFF042004F12002014608F096FF19E0A078B4F8405021
:20212C00B4F84230B4F84420B4F8461006280ED1ADF84250ADF84430ADF84620CC48ADF842
:20214C0048100AF0D1FA012010A906F08FFC0A20ADF80A00ADF808704FF0FF35039502A850
:20216C0008F068FE002840F0E38130460C90ADF824700925ADF8265009A808F05BFEDDF8CE
:20218C002C900028CDF8309040F0D281BDF82800102840F0C18160789DF82A10884240F01F
:2021AC00BB814D4628884FF6FF71814200F0AC812B78A23B00F091812E3B40F0AD81A87896
:2021CC00B046002800F05E81801E00F03681401E012840F20D81801E00F0BC80401E7FD003
:2021EC00401E60D0083800F06981801E40F06B8194F83E30A888052BADF834004BD0012002
:20220C008DF83E009A480AF06FFA94F83E00012820D004281ED003280DD002280BD00C98FC
:20222C00C188ADF836100189ADF838104189ADF83A1080892BE0B4F84000B4F84250ADF84B
:20224C003600B4F84430ADF83850B4F84600ADF83A301CE0B4F84000E9888842D8BF081C10
:20226C00ADF836002989B4F842008842D8BF081CADF838006989B4F844008842D8BF081C0E
:20228C00ADF83A00B4F84610A889814200DC0146ADF83C1001E08DF83E60B24A0DA8122161
:2022AC0008F085FF0FE1B0480AF01EFA6878002840F00981E888E0822889208368896083E0
:2022CC006B480AF03FF8002840F0FD80A56A002D00F0F9802B68E08A218B628B9847F2E04D
:2022EC00B5F804A00A2009F05DFC5FEA00080AD0012115220AF0D7F8A8F808A009F062FC19
:20230C00414609F021FABA483146062206F02EFCE68226836683A879607355480AF0E4F9F3
:20232C0091480AF0E1F94FF001084FF6FF706379A0824BB9A879082814BF04200520A07069
:20234C00404609F0B3FEBEE00320A070BBE0C046081000206878002840D1A549281D0268E1
:20236C000A60808888800623A3706889A082E889E082288A2083688A6083E878207394F80C
:20238C003E00012818BF022808D11F2008F068FA4FF47A714143364808F072FC95F803B081
:2023AC00B5F80AA0142009F0FDFB5FEA000800F08D80012114220AF076F888F808B02D1D05
:2023CC00C8F80C50A8F810A0042088F8120009F0F9FB804A414608F06FFB77E0687831289F
:2023EC006AD12671042022E0A5C40000B9C000006878002860D1A878618AA278032811D08D
:20240C002079657921B9012814BF6671267105E0054303D0724808F033FCA278072AE1D117
:20242C00062004E0062A06D0207910B90320A0704CE00220FBE70720F9E7687800283BD1A0
:20244C00EB78A078E179ABB9022818D0072816D0062802D16179012911D103280FD0604877
:20246C0009F070FF58B9012009F020FE07E0C046D41000205F4A404607F0BEFC6870687816
:20248C00D0B920E06878B8B9564A0220102108F0F3FD554A0320102108F0EEFD5648ED1CFE
:2024AC0029680160AB888380544A01252846A179A57007F0A1FC48B1A77007E0A888464A3C
:2024CC00102108F05BFEB8F1010F25D1606A18B3016809B3A07888471EE0687913281BD118
:2024EC002889012808D1A07B022805D11E480AF0FBF807F09FFE0FE0052008F0B1F901461E
:20250C00194808F0BDFB07E06888C00B04D3374A0420014608F0B0FD0C9848B1ADF81070D2
:20252C000320ADF81200CDF8149004A808F082FC208A65792179420831D320F0010055EA6A
:20254C00010320822BD08DB92D49207A8DF84A00657A8DF84B500A6813AB1A6089889980D6
:20256C0007E0C0469BC60000F810002003208DF84A00A07AE57A194A8DF8520006218DF888
:20258C0053500DF14A0008F001F8616A30B1A77021B1086810B1096838468847208A81089C
:2025AC0007D3184920F002002082304606F05EFA208AC108FFF4CBAD20F00400A57B2082A8
:2025CC00681E3FF4AAAD401E7FF4C1AD07F032FEBDE5C0467BC40000BFC60000B3C6000094
:2025EC00B0100020501000206010002028100020401000208F100020341000207010002054
:20260C003A100020461000202DE9F84F8046DD480122A0F130010A60D7490F68002FFCD0A5
:20262C00D74ED64AC02706F1040B1760DBF80010890804D23168090C41F0F00100E0722158
:20264C00E34AE44D4FF0000982F85412A5F1D407C0F80090D6F808A03868C0F3046009F009
:20266C00E3FE5246534600EB2270401C162805DA10F10A0FB8BF6FF0090000E01520E64909
:20268C00E64F00F01F0040F4F8500880386880083ABFE348C0F8009042F04062E149A5F1BE
:2026AC003C04D00E970E80F0010000F00100086087F0010000F0010088602068C0F383670B
:2026CC00C0F38F215FEA9A4022D243F3072000280BD542424846490805D17F0806BF012762
:2026EC00391C4FF6FF71521EF5D1002810DD4FF6FF72490041F001018A4207D27F0047F0EC
:20270C0001070F2F92BF01210F27111C401EF0D141EA0741182008F013FC20682768C34C9A
:20272C00C0F3870140F2FF324B4607F0030041EA0021274688B22C210090A7F1400007F0C5
:20274C00E5FDA5F110073868C0F30D011C2008F0F7FBB54957F8080C014000F07C400143C5
:20276C00142008F0EDFB57F80C1C01F47C000904090C0143102008F0E3FB57F8042CDBF893
:20278C000010C2F30350C2F30343490812D231680E0510EB267003D41028A8BF0F2000E023
:2027AC004846090413EB217303D4102BA8BF0F2300E04B4643EA001302F47F4002F0FF01DD
:2027CC00B8F1220F40EA034041EA000124BF02F0804211430C2008F0B3FBB8F1220F32BFF2
:2027EC0001202868C0F30070B8F1220F4FEA400040F0200084F8090126BF2868C0F34070F8
:20280C0001208B4EB8F1200F40F0100084F8090138BF494606D33168C80C00F44070C1F3F0
:20282C0084510143282008F08BFBB8F1200F26BF3068C0F301504846B8F1220F4FEA400073
:20284C0040F0600084F80C0126BF2868C0F3C0604846B8F1220F4FEAC00040F0800084F87E
:20286C00010126BF2868C0F345504846B8F1200F4FEA800040F47C40A4F89C0138BF6D4998
:20288C000AD3306801038A15920501F47C1100F00F00114341EA0031082008F051FB2E466C
:2028AC004FF480002060A6F1D000816D40F20F226FF31F418A4213D901680068C1F30367A8
:2028CC00C0F3034007B17F1E072805D006280EBF0720801C00F00F003D4947EA00100870A1
:2028EC00CAF381477F1E02D07F1E28D023E03168880C20D24FF4804020604F48D0F802201D
:20290C004B0AC1F3033703F0800322F08F02134347EA0302C0F80220D0F801300F0A67F37D
:20292C000303C0F80130026801F0E70722F0E70247EA020102E04FF0004120460160DBF828
:20294C000000C0F3C0070FB94020A0624FF400703E4F206428684FF04008C0F3C14040F008
:20296C00300084F8C800CAF38150A8B3401E0BD0401E28D0022127E09402224300600C408E
:20298C00AC3F005040100940012009F02BFA05460420294607F044FB042009F023FA854203
:2029AC00FAD12648056825F07F4008F0F5FC384614300068036807214FF06022280E984715
:2029CC004FF4806020600321042007F029FB0AE0026008408C1300500420012107F020FB0A
:2029EC00174808F0D9FC203E30681649164B47F6180500F03F0084F8CB0F3A460D8018687D
:202A0C001068C168022088471248114EC0F8008001213160BDE8F88F6E62084000000940E7
:202A2C0094042A4300002043FCFCFC0040A00C409813005000803F400A600840A83F00501F
:202A4C00BD37860070B00C402C200940A00100109404604200600C402DE9F04F09AFADF1AD
:202A6C003C0D1E460025DFF8F891DFF8F881DFF8F8A108903C8838790A92DFF8F0B10B909C
:202A8C00FF200D9008780991022809D10846494640680F88008842F60213834200F0E88042
:202AAC00099806F04FFF07464946ACA2002F0B880C97994640D07F1E1FD096480168D3B150
:202ACC0095480068014216D094480068014204D140460068008801420DD0934840F229272D
:202AEC0097A6046800978F4B01968D4F02951A8838688FA3A0470A2009E150465F46B9F152
:202B0C00000F4FF0140A0168079707F1040B3FD08148006801423BD080480068014204D159
:202B2C00404600680088014232D080484FF40973076800939AA31DE050465F46B9F1000F17
:202B4C004FF0280A0168079707F1020B20D07248006801421CD071480068014204D14046EC
:202B6C0000680088014213D0704840F21623076800938DA301920293089803900496059450
:202B8C000B98684B06901A88654B186868A3B847A24530DD3719BA4521DA5E480168B9F16A
:202BAC00000F1AD05C480068014216D05B480068014204D140460068008801420DD05A4880
:202BCC004FF40D730768009379A20192554B0295534D1A88286856A3B8470D252CE0099896
:202BEC000A99C0683246201805F003FAABF800700C980D9020E047480168B9F1000F1AD06D
:202C0C0045480068014216D044480068014204D140460068008801420DD0434840F22F23D9
:202C2C00076800936BA201923E4B02953C4D1A8828683FA3B84707250D98FF280DD00798B6
:202C4C00806850B1076847B1A419A0B200900C9A0A9B089841F23011B847284657E0C04670
:202C6C0076E600004405000030E600005816002050460068002F81462ED02748006819EA33
:202C8C00000F29D02548006819EA000F05D140460068008819EA000F1ED00B98FE280CBF59
:202CAC000FF254180FF26C18099806F04BFE1F4940F2FB130F68009359A2019202900898C4
:202CCC000390CDF8108017490595154B06950A881868494616A3B847089809990A9A009438
:202CEC00334606F069FB05465846083007686DB967B1786850B1099806F024FE00960246AF
:202D0C000A9B7C68089841F23011A047E8B20FB0BDE8F08F2CE60000400500003C0500000E
:202D2C004CE600008405000044E6000048E60000646174615F736572766963652E6300C039
:202D4C0041747472696275746520776173206E6F7420666F756E642E00C046C05772697401
:202D6C0065417474724342203A20257320636F6E6E48616E646C6528256429206C656E2835
:202D8C00256429206F666673657428256429206D6574686F64283078253032782900C04655
:202DAC0053747265616D00C0537472696E6700C0496E76616C69642076616C7565206C65AF
:202DCC006E677468207761732072656365697665642E00C0416E20696E76616C6964206F31
:202DEC00666673657420776173207265717565737465642E00C046C02D20726573746F7272
:202E0C00696E6720626F6E64656420737461746500C046C02D204F54412077726974650059
:202E2C005772697465417474724342202843434344293A20706172616D3A20256420636F9D
:202E4C006E6E48616E646C653A202564202573002DE9FE4FB84C0F460646F80B80F0478160
:202E6C00B80880F0D480B54DDFF8D892DFF8E0B2DFF8E882DFF8F4A22C68B80F67D2B048DC
:202E8C000678002E47D1380947D3AF4801264946067000240C70204603F039FDAB4809F0C9
:202EAC0011FBAC492246584609F015FCAA48017801291CD141460B78CBB9A94E306880B125
:202ECC0009F078F92B68A8493668A64D0A68C01A000B82182860B2EBC61F28BF0C6007D240
:202EEC000A60A4484FF0005109F020F92CE00670504640F609010180417B01F0F00141F026
:202F0C00010141734480017B01F0F00101734460974E306018E0390914D2B80BC0F0048128
:202F2C009D48001D09F0DEFB061C08D0706830B17468F068B6F91C1098A20CCAA04727F4DD
:202F4C000057F1E00021017027F00807ECE0ECB1042008F047FFC8B109F02CF9864A2968C2
:202F6C001060814226BF401A401E401A000BF060F06800F58D70F060F16840F6C4108842F9
:202F8C0003D340F2EE228A4200D9F0600024D6F818C02C60BCF1000F10D050460D300078DB
:202FAC0010F00F0F0AD1708C40F60901814205D17CA20CCA30466FF48071E0476F495846FC
:202FCC00224609F088FB4546287850B10220ADF80000684608F0A6FC2C70BDF808006849BC
:202FEC00088049460120674A674B087010781C70401C1070192009F0B5F9756925B16BA221
:20300C000CCA30462146A84727F000578CE004F10C0A504609F066FB061C5FD007F0A0FE47
:20302C007368B2690025B561E3B1F37F42F002024FF00009904603F007035B1E07D05B1E33
:20304C0003D09B1E06D15BA002E05CA000E05DA090E800037268F068B6F91C104B46944658
:20306C004246E04709F0DEFB8046B4F91200401C6FF31F306082E0681F30017801F07F01CE
:20308C000170504608F0D6FF404609F0C7FBF068B0F99410B4F9122091421FD13B490978C3
:2030AC0001291BD090F896409CB904688CB1384909680968B1F1FF3F10D0364909687030E0
:2030CC00B4FBF1F109F0A6FBF068703009F09EFB04E080F89650284606F004FA504609F0FC
:2030EC0001FB27F0020708B147F002071CE009F099FB01462046083009F0F4FA0646B469F1
:20310C00084609F08BFBA0080CD25EB17068B169A143B16130B17568F068B6F91C10002345
:20312C002246A84727F480471FB11248394608F0FDFFBDE8FE8FC046642A0020AC2A0020D1
:20314C00D12A0020CD2A0020CB2A0020A98E0000182A0020DDBA0000CF2A0020CA2A0020BF
:20316C00A82A0020B42A0020A42A0020782A002000100440E8280020B02A0020FD660000C2
:20318C00DC290020D32A0020CC2A0020A41B0020B82A002020E60000642A00200000000036
:2031AC002000000000000000000000020000000000000004000000000000001000000000CD
:2031CC000000004000000000000000202DE9F04F05467F487F4CADF13C0D0FF2442C0F46A4
:2031EC00DFF8F4A1DFF8F491DFF8F4810088DFF8F4E107902E1C0890E068099245D0761E76
:20320C0021D0BD48079F0168002F00F0DD80BB480068014200F0D880B9480068014205D1A9
:20322C00504600680088014200F0CE80B5484FF49A7771A604680097434601964F460295C4
:20324C001A88386876E0089E8346231D04F11002704614210B93002E0A9205680C914FF078
:20326C0001030D933FD0A548006805423BD0A4480068054204D1504600680088054232D0A9
:20328C004FF498736DA200211CE0089EA31C704604F1240200210B9305680A920D912823C1
:2032AC000C9306B39548006805421CD094480068054204D1504600680088054213D040F2F0
:2032CC00251360A2904806680093CDF804C002920397049105914346069149461A8808682C
:2032EC0041A32946B0470C98B84226DA8248089E0168002E68D081480068014264D080482B
:20330C000068014204D150460068008801425BD07D4840F24D16046800964CA501950297B1
:20332C00002303930C9A0492464605934D460693328828682CA3A04746E00A9809993A4652
:20334C0004F057FE0D9E0B98002E07803CD00798294600282BD069480068014227D06848D5
:20336C000068014204D150460068008801421ED0654B40464E4602889BF802701D68306894
:20338C00002F19A308BF3FA703D0012F0CBF44A749A74FF4A27600964CA60196BBF8006053
:2033AC00029603970027049705970697A84706200090564F0A99207804F14C030022019058
:2033CC005846029704F07CFC0FB0BDE8F08FC04676E6000058160020440500004CE60000F0
:2033EC008405000030E60000646174615F736572766963652E6300C0536574506172616DCA
:20340C00657465723A20506172616D6574657220232564206E6F742076616C69642E00C09A
:20342C00536574506172616D65746572203A202573206C656E3A20256400C04653747265BB
:20344C00616D00C0537472696E6700C04C656E677468206F75747369646520626F756E64E4
:20346C00733A204C656E3A202564204D696E4C656E3A202564204D61784C656E3A202564E3
:20348C002E00C0461B5B33336D4E6F74692F696E642064697361626C65641B5B306D00C074
:2034AC004E6F74696669636174696F6E20656E61626C656400C046C0496E64696361746943
:2034CC006F6E20656E61626C656400C0547279696E6720746F2073656E64206E6F74692F05
:2034EC00696E643A20636F6E6E48616E646C652025782C20257300C02CE600004005000079
:20350C003C05000044E6000048E60000DD4500002DE9F04F09AFADF13C0D08900A923888FC
:20352C0009911E46ADF81800101C08BF002000F08481002700F101094FF0FF3A4FF0010BD7
:20354C00B8466CE1252940F063811078521C0A922D2818BFADF8068005D15846551CADF83F
:20356C00060010780A9530281CBF4246434605D10A9908785A465B46491C0A912A28CDF87D
:20358C000080554616D1306804930A99CDF808A0C01C4B1C20F00300001D306050F8044C43
:2035AC000A93002C0878009418D5ADF806B06442009413E044460AE0610001EBC4014018CF
:2035CC000A99A0F1300408780094491C0A91302801DB3A28F0DBCDF808A004932E282BD1AC
:2035EC000A9908782A2801F101010A9111D13068CDF80880C01C20F00300001D306050F810
:20360C00045C002D48BF454608782B46491C0A9111E0454643460AE0690001EBC50140182C
:20362C000A99A0F1300508782B46491C0A91302801DB3A28F0DB02930AB1224604926C28E1
:20364C0004D04C2818BFADF8048005D10A990878ADF804B0491C0A910BA9CDF80C800FAB05
:20366C0007916428059300F08B80692800F08880BDF818C0752872D078286ED06F286AD0E3
:20368C00702850D063283DD073281ED009980A990128A1F101010A9115D96B490C68B5F1ED
:2036AC00FF3F03D0A84288BF6D1C00D8099D029508A80AA932466B46A047C7190A9903988D
:2036CC0001F1010974E040462AE030680A99C01C20F00300001D306050F8040CBCF1000F13
:2036EC0001F10109014608B955A00146079108F0B1FD0390B5F1FF3F5BD0A842C4BF281CED
:20370C00039056E03068C01C20F00300001D306010F8040C5D468DF82C000A99039558465B
:20372C0001F1010945E0082035680490E81C20F00300001D306050F8041C082210230FA8C3
:20374C0005F092FC401E0790402101700A99079801F1010929E0082302E0102300E00A237F
:20376C000A99306801F10109C01C20F00300001D306050F8041CAA42BCBF2A1C049210E0CF
:20378C000A99306801F10109C01C20F00300001D306050F8041CAA42BCBF2A1C04926FF040
:2037AC0009030FA805F060FC0790059D281A0390009C241ABDF8065000945DB906E008A8B6
:2037CC00202109AA08F084F8009C7F1C641E0094F5D503980546401E039075B9BDF806009E
:2037EC00E8B10098401E009019D408A8202109AA08F06EF800987F1CF4E70798411C07910D
:20380C00017809AA08A808F063F803987F1CE1E708A809AA08F05CF87F1C09F101094A4691
:20382C000A9812F8011C401C00290A907FF48AAE089808B14146017038460FB0BDE8F08F37
:20384C00286E756C6C2900C058E600002DE9F04F0546BE4CBC48DFF800B3DFF800A3DFF8C9
:20386C000093DFF80083DFF804E30F46ADF1340D0FF2FC1C2E1C0892E1680288206907926B
:20388C003CD0761E20D0B2480168171C00F0CF80B0480068014200F0CA8058460068014291
:2038AC0005D1504600680088014200F0C080AE484FF4A57764A604680097434601964F4616
:2038CC0002951A883868B0E00B90A61D7046A31C002A0A96056809933AD09E48006805422E
:2038EC0036D058460068054204D150460068008805422DD04FF4A37364A217E0261D70467B
:20390C00631C0B910A96056809930AB39148006805421DD058460068054204D15046006885
:20392C000088054214D040F23B135AA2904806680093CDF804C00292039700210491059170
:20394C004346069149461A8808683AA32946B047022F46DA002F44D0099808993A4604F00D
:20396C0048FB079E0A982946002E07802BD079480068014227D058460068014204D150467B
:20398C000068008801421ED040460B9E0288784B4846B7781D680068002F26A308BF3FA72F
:2039AC0003D0012F0CBF44A749A74FF4AD7600964CA601960B9E3688029603970027049772
:2039CC0005970697A8470720009020780190694F02970B98099904F11403002204F070F9B2
:2039EC0025E05C4D5A4C07982A682168061C1ED011421CD058460068014204D15046006842
:203A0C000088014213D05A4840F26716046800963FA5019502970123039300220493464687
:203A2C0005924D4606923288286802A3A0470DB0BDE8F08F627574746F6E5F7365727669DD
:203A4C0063652E6300C046C0536574506172616D657465723A20506172616D657465722053
:203A6C00232564206E6F742076616C69642E00C0536574506172616D65746572203A202593
:203A8C0073206C656E3A20256400C046425554544F4E3100425554544F4E30001B5B33336A
:203AAC006D4E6F74692F696E642064697361626C65641B5B306D00C04E6F74696669636131
:203ACC0074696F6E20656E61626C656400C046C0496E6469636174696F6E20656E61626C4B
:203AEC00656400C0547279696E6720746F2073656E64206E6F74692F696E643A20636F6E09
:203B0C006E48616E646C652025782C20257300C04C656E677468206F75747369646520627D
:203B2C006F756E64733A204C656E3A202564204D696E4C656E3A202564204D61784C656E49
:203B4C003A2025642E00C04676E60000981700202CE60000400500003C0500004405000036
:203B6C004CE600008405000044E6000030E6000048E600009D4300002DE9F04F09AFADF185
:203B8C003C0D08900B9397F804B00A923F880991084605F02FFFB149DFF8C8A2DFF8C8927D
:203BAC00DFF8C882B74B0E8800240546FF2084A2002D0D90B149B2480C953DD06D1E1FD0A6
:203BCC00A7480168D6B150460068014216D048460068014204D140460068008801420DD02F
:203BEC00A54840F2ED176FA605680097A14B01969F4F02941A88386866A3A8470A20C5E06D
:203C0C0000F1040C002E07900968CDF838C03CD050460068014238D048460068014204D141
:203C2C0040460068008801422FD018464FF4F4730568009373A319E000F1020C07900968A2
:203C4C00CDF838C00EB35046006801421DD048460068014204D1404600680088014214D001
:203C6C0018464FF4ED730568009368A301920293089803900B9A049205977E4BCDF818B0A4
:203C8C001A887B4B186843A3A847002F4CD10B9D60A2ED19022D28DACDB9BBF1180F18BFFE
:203CAC00BBF1120F13D150466D4900680968002E38D0014236D048460068014204D140460F
:203CCC000068008801422DD040F201261FE009980A990B9AC068381804F08BF9002D42D038
:203CEC000C980D900E9E35803DE05D480168CEB150460068014215D048460068014204D138
:203D0C0040460068008801420CD04FF4FC765A4805680096574B0192554E02941A88306800
:203D2C001CA3A8470D241EE04D480168D6B150460068014216D048460068014204D140465A
:203D4C000068008801420DD04B4840F2F3163AA305680096474E0193454B02943288186810
:203D6C000CA3A84707240D98FF280ED00798806858B106684EB10B980C9A0A9B3F18B8B218
:203D8C000090089841F21011B04720460FB0BDE8F08FC0466C65645F736572766963652E9A
:203DAC006300C04641747472696275746520776173206E6F7420666F756E642E00C046C0CE
:203DCC005772697465417474724342203A20257320636F6E6E48616E646C65282564292086
:203DEC006C656E28256429206F666673657428256429206D6574686F6428307825303278AD
:203E0C002900C0464C45443100C046C04C45443000C046C0496E76616C69642076616C7531
:203E2C0065206C656E677468207761732072656365697665642E00C0416E20696E76616CC6
:203E4C006964206F666673657420776173207265717565737465642E00C046C076E6000035
:203E6C002CE60000400500003C050000440500004CE600008405000044E6000030E600005A
:203E8C001C18002048E600002DE9F04FA549A64EA64DA74CDFF89CB2DFF89CA2DFF89C9238
:203EAC00DFF89C820F88401EADF1240D00F09080401E75D0801E61D0401E4DD0401E2ED0F4
:203ECC00401E17D0401E40F0C9803168002F00F0C5802868014200F0C1802068014205D118
:203EEC005A4610680088014200F0B8804FF4517060A766E03168002F00F0B080286801429F
:203F0C0000F0AC802068014205D15A4610680088014200F0A3804FF44E7058A751E040F27F
:203F2C00153004A902F03AFA04A805F0DDFF3168002F00F093802A68114200F08F802268A7
:203F4C00114205D15A4612681288114200F0868040F2333750A676E03168002F7ED02868A1
:203F6C0001427BD02068014204D15A4610680088014273D04FF4507051A722E03168002F1C
:203F8C006CD02868014269D02068014204D15A4610680088014261D04FF44F704EA710E032
:203FAC003168002F5AD02868014257D02068014204D15A461068008801424FD040F22930DC
:203FCC004AA74246146800900197002602963FE04FF4417006A902F0E1F99DF819308DF809
:203FEC00113000218DF814109DF81A208DF813109DF818008DF812209DF81D308DF8100058
:20400C009DF81C208DF8173004A98DF816209DF81B304C4A8DF81530086810604B68536009
:20402C0006A805F061FF3168C7B12A68114215D02268114204D15A461268128811420DD000
:20404C004FF449772CA64246146800970196029053464D4618682A8802A3A04709B0BDE873
:20406C00F08FC04670726F6A6563745F7A65726F2E6300C04572726F7200C046436F6E6EAA
:20408C00656374656420616E64206164766572746973696E6700C046436F6E6E65637465C7
:2040AC00642E205065657220616464726573733A201B5B33326D25731B5B306D00C046C09D
:2040CC00436F6E6E656374696F6E2074696D6564206F757400C046C0446973636F6E6E6520
:2040EC0063746564202F2049646C65004164766572746973696E6700474150206973207340
:20410C007461727465642E204F757220616464726573733A201B5B33326D25731B5B306D38
:20412C0000C046C076E6000030E60000400500003C050000440500004CE6000084050000B1
:20414C0044E6000083130020F8B5A0F2013517460E46022D40F214818A4A8B498B4B2D1F8D
:20416C000F2D04D9143D4AD0AD1E1CD011E0DFE815F0C300BC00F400E400B300AB0007017E
:20418C00A2009A00100010009200880079006F006300282880F2F480022E40F0F18039888A
:2041AC0006F02EFEF8BD012E40F0EA8015462879012800F0E58051793878507181B900283C
:2041CC0000F0DE809078012800F0A980042800F0A680062800F0A380052800F0A080F8BDC6
:2041EC003878002840F0CC809078032800F0A280072800F09F80052800F09C80F8BD012EBF
:20420C0040F0BE803878012840F0BA80154605F1F00008F097F8002840F0B2802C460020FD
:20422C0004F13E0104F022FC002840F0A98004F1CC0008F059FAF8BD022E40F0A1803888A9
:20424C000A28C0F29D80B0F5486F00F3998015E0022E40F095803888B0F5FA7F80F290801F
:20426C000880F8BD022E40F08B8038880628C0F28780B0F5486F00F383801946891C0D463A
:20428C0038E0022E7CD13888062879DBB0F5486F76DC1946F3E7012E72D1387806286FDABB
:2042AC00891F0D460EE0012E6AD13878042867DA15460B3506E0012E62D1387808285FDA86
:2042CC0015460A352870F8BD012E59D13878042856DA1546093506E0012E51D138780428DA
:2042EC004EDC154608352946DBE7022E48D13888154612352946B3E7012E41D1154668798E
:20430C0001283DD011793878107161B9002837D09078012803D0042818BF052830D1012001
:20432C0007F0C4FEF8BD387850BB9078022818BF052825D107F0CEFFF8BD154605F18704C7
:20434C0000211F22204604F011FC39463246204603F04FFE0020EE710EE0154605F16804C1
:20436C0000211F22204604F001FC39463246204603F03FFE0120AE713146224605F03CFD9E
:20438C00F8BDC046081000204C100020481000202DE9F04F804609AF0846ADF1340D0A938D
:2043AC0097F808B00992B98808903F880B9105F09DFA06467C497B48DFF8F491DFF8F4A1AB
:2043CC00814ADFF808C200240FF2681E002E0588C8888988079538D0761E1FD07348016853
:2043EC00D5B148460068014216D050460068014204D171480068008801420DD071484FF431
:20440C00EC7745A6056800976D4B01966B4F02941A8838683BA3A8470A206FE00546104676
:20442C00079E0168002E37D048460068014233D050460068014204D15F4800680088014201
:20444C002AD040F2D3134AA214E00D461046079E01680EB34846006801421DD050460068C2
:20446C00014204D1544800680088014214D04FF4E47341A2604606680093CDF804E0029204
:20448C00CDF80C800497CDF814B04D4B06941A884A4B18681BA3B047BD420EDB0B98E91B6E
:2044AC008142D4BF8AB2021C0A9802800898C0683918099803F09DFD1FE03C48079F016843
:2044CC00D7B148460068014216D050460068014204D139480068008801420DD039484FF4BE
:2044EC00EF7727A605680097354B0196334F02941A88386803A3A847072420460DB0BDE880
:20450C00F08FC046627574746F6E5F736572766963652E6300C046C0417474726962757478
:20452C006520776173206E6F7420666F756E642E00C046C052656164417474724342203A08
:20454C0020257320636F6E6E48616E646C653A202564206F66667365743A202564206D651E
:20456C0074686F643A2030782530327800C046C0425554544F4E3100425554544F4E3000A0
:20458C00416E20696E76616C6964206F666673657420776173207265717565737465642E27
:2045AC0000C046C076E60000981700202CE60000400500003C050000440500004CE60000EB
:2045CC008405000044E6000030E6000048E600002DE9F04F804609AF0846ADF1340D0A933B
:2045EC0097F808B00992B98808903F880B9105F0A9F906467A498448DFF8EC91DFF8ECA167
:20460C007F4ADFF800C200240FF2641E002E058888884988079538D0761E1FD071480168A0
:20462C00D5B148460068014216D050460068014204D16F480068008801420DD06F484FF4F2
:20464C00E57744A6056800976B4B0196694F02941A8838683BA3A8470A206FE00546104640
:20466C00079E0168002E37D048460068014233D050460068014204D15D48006800880142C1
:20468C002AD040F2C51349A214E00D461046079E01680EB34846006801421DD0504600688F
:2046AC00014204D1524800680088014214D04FF4DD7340A2604606680093CDF804E00292CC
:2046CC00CDF80C800497CDF814B04B4B06941A88484B18681BA3B047BD420EDB0B98E91B30
:2046EC008142D4BF8AB2021C0A9802800898C0683918099803F07DFC1FE03A48079F016824
:20470C00D7B148460068014216D050460068014204D137480068008801420DD037484FF47F
:20472C00E87726A605680097334B0196314F02941A88386803A3A847072420460DB0BDE849
:20474C00F08FC046646174615F736572766963652E6300C0417474726962757465207761E1
:20476C0073206E6F7420666F756E642E00C046C052656164417474724342203A202573204B
:20478C00636F6E6E48616E646C653A202564206F66667365743A202564206D6574686F6405
:2047AC003A2030782530327800C046C053747265616D00C0537472696E6700C0416E20698B
:2047CC006E76616C6964206F666673657420776173207265717565737465642E00C046C057
:2047EC00581600202CE60000400500003C050000440500004CE600008405000044E6000059
:20480C0030E6000048E6000076E600002DE9F04F804609AF0846ADF1340D0A9397F808B008
:20482C000992B98808903F880B9105F0E3F806467B497A48DFF8F091DFF8F0A1804ADFF892
:20484C0004C200240FF2641E002E058888884988079538D0761E1FD072480168D5B14846E5
:20486C000068014216D050460068014204D170480068008801420DD0704840F2A11744A631
:20488C00056800976C4B01966A4F02941A8838683BA3A8470A206FE005461046079E016834
:2048AC00002E37D048460068014233D050460068014204D15E480068008801422AD04FF44F
:2048CC00CE7349A214E00D461046079E01680EB34846006801421DD050460068014204D1F8
:2048EC00534800680088014214D040F2911340A2604606680093CDF804E00292CDF80C800D
:20490C000497CDF814B04C4B06941A88494B18681BA3B047BD420EDB0B98E91B8142D4BFE6
:20492C008AB2021C0A9802800898C0683918099803F05FFB1FE03B48079F0168D7B148463F
:20494C000068014216D050460068014204D138480068008801420DD0384840F2A71726A6D8
:20496C0005680097344B0196324F02941A88386803A3A847072420460DB0BDE8F08FC046AB
:20498C006C65645F736572766963652E6300C04641747472696275746520776173206E6FD3
:2049AC007420666F756E642E00C046C052656164417474724342203A20257320636F6E6ECB
:2049CC0048616E646C653A202564206F66667365743A202564206D6574686F643A2030786F
:2049EC002530327800C046C04C45443100C046C04C45443000C046C0416E20696E76616C66
:204A0C006964206F666673657420776173207265717565737465642E00C046C076E6000069
:204A2C001C1800202CE60000400500003C050000440500004CE600008405000044E6000050
:204A4C0030E6000048E600002DE9F04F0128ADF1140D40F0F280DFF81492D9F8DC000128D4
:204A6C0040F0E9800220C9F8DC0007F0CBFE0290012005F0FFFC20B101210646C9F8DC1083
:204A8C00D5E007F0BBFE03906E484FF00008C0F80080012007F0A6F9012818BFCDF80080E1
:204AAC0004D1404605F0ACF80120009066486E4CC0F800801934D4F8FF0F112007F046FD13
:204ACC0000280CBF46460126102007F03FFD08B146F002060F2007F039FD08B146F0040675
:204AEC000B2007F033FD30B1584800685849006B0246088890470A2007F028FD00284046C0
:204B0C0018BF01204FF0805B0BF5DC7528B128685049006B0246088890474F4801270760E4
:204B2C0028688069014646F0200088474B48076007F006FD00F001010191400815D248484D
:204B4C0007F079FC8246BAF1040FF8D0BAF1010F06D1DBF8D80140680246414803219047DD
:204B6C004049086820F003000860404600F080F82868D4F8FF1F806B8047019801280ED0FB
:204B8C00BAF1010F06D1DBF8D801406802463448394690473349086840F0030008602A4810
:204BAC000760286840690146304688470B2007F0CDFC28B128682649C06A02460888904721
:204BCC000A2007F0C3FC28B128682249C06A024608889047204807600322C9F8DC201F4B21
:204BEC00C3F800802868406B0146304688470128F8D1042005F03EFC124807601A48D4F873
:204C0C00FF1F01688909FCD30098012802D1384604F0F6FF07F088FC082005F02BFC06469A
:204C2C000398C9F8DC7007F0E5FD04F079FD029807F0DCFD02E0042600E00126304605B0D5
:204C4C00BDE8F08F0C40094000022243B8010010A2E100009EE100002820086080010443E5
:204C6C00004003402422084014100940481500202DE9F84FDFF8E8B10746ABF13500DFF86B
:204C8C00D4910068800880F0D68006F037FE064677480830D0F8008000254FEA28725FEAF6
:204CAC00985002F101020AD2C6F13E0016F10A0F4FEAE000D8BF08208242B8BF021C624B3B
:204CCC00D3F87C01C0F3046007F0AEFB04461868C0F3044007F0A8FB12198246162A05DA5C
:204CEC0012F10A0FB8BF6FF0090200E01522574B574802F01F0141F4F8511980006810F0C2
:204D0C00030F18BF0125C00828BF45F002050FB145F00405494691F90700301A052804DA1A
:204D2C008879A84208BF888865D0DFF82CE10F2EA6F10F0C25DB0CEB0610A0F1F00C4FEACA
:204D4C002C27072F88BF07273C46062C88BF06245EF82400042303EB84037446E3581B1AE4
:204D6C0003F0FF04E80824BFC3F307200444A80824BFC3F307400444680828BF04EB1364A4
:204D8C0001E0002427465EF827E0E8080EF0FF0324BFCEF307200344A80824BFCEF307409B
:204DAC000344680828BF03EB1E63A4B2ACEB0727AAEB02007C43002804F1800403EB1423A3
:204DCC00D8BF0120342208F0FF0742437A43B2FBF3F04FF6FF72824238BF101C802E80B26C
:204DEC00888005DA16F1800FB8BF6FF07F0600E07F26CE718D71194A12681F280A604FF040
:204E0C00000208D340F2FF11814206D24008521C8142FBD301E01F208880124F0F380009AC
:204E2C0042EAC00247EA0200CBF8FB0F0026CBF8FF6FBDE8F88F0D4F0B4E494608203760F2
:204E4C00891D0870BDE8F88F3C1100506E620840242208409C2A00209C1300500820094063
:204E6C003500094000E7A48030100940FDFDA400AC3F00502DE9F0411C4615468C4208BFA2
:204E8C00854282BF00230022E5E0002C08BF002D0AD100290EBF00286FF000006FF000011C
:204EAC0000F0E1F8BDE8F0815FF000085FF0000E002C08BF8D429CBF2C1C0025070C47EA85
:204ECC0001470E0CB44208BFBD429EBF5FEA044444EA15445FEA0545070A47EA01670E0ADE
:204EEC00B44208BFBD429EBF5FEA042444EA15645FEA0525470847EAC1774E08B44208BF37
:204F0C00BD4200F29380870847EA81778E08B44208BFBD427CD8C70847EA4177CE08B4429F
:204F2C0008BFBD4266D8070947EA01770E09B44208BFBD4250D8470947EAC1674E09B442B7
:204F4C0008BFBD423AD8870947EA81678E09B44208BFBD4224D8C70947EA4167CE09B442FF
:204F6C0008BFBD420DD8E60146EA5566EF01B14208BFB84201D3C01BB14158EB08085EEBC7
:204F8C000E0EA60146EA95664FEA8517B14208BFB84201D3C01BB14158EB08084EEB0E0E45
:204FAC00660146EAD5666F01B14208BFB84201D3C01BB14158EB08084EEB0E0E260146EA4F
:204FCC0015762F01B14208BFB84201D3C01BB14158EB08085EEB0E0EE60046EA5576EF002D
:204FEC00B14208BFB84201D3C01BB14158EB08084EEB0E0EA60046EA9576AF00B14208BF5E
:20500C00B84201D3C01BB14158EB08084EEB0E0E660046EAD5766F00B14208BFB84201D369
:20502C00C01BB14158EB08085EEB0E0EA14208BFA84201D3401BA14158EB08085EEB0E0E82
:20504C00A34208BFAA423EBF2D0A45EA0465240A89D3734642461E4617460B460246314644
:20506C003846BDE8F08170472DE9F04F0D468246DFF89881684CDFF8A491287809AF9B4680
:20508C00ADF1240D0228079207D140466B680688188842F60211814224D0284604F026FC8D
:2050AC005B48474601683888D0B15A480068014216D02068014204D1484600680088014276
:2050CC000ED05948046840F2172733A600250097544B0196524F02951A88386829A3A04771
:2050EC000A204CE051480068002E80462BD04948006818EA000F26D0206818EA000F05D1EF
:20510C0048460068008818EA000F1CD03879FE280CBF28A62EA6284604F0E8FB444940F2C0
:20512C0005230C6800932DA201920290CDF80CA0002104963B4B0591394E06911A883068A0
:20514C00414610A3A04738880090079A5B462946504604F031F906463648076876B96FB1E5
:20516C00786858B1284604F0C1FBCDF800B07C68079B02464FF489515046A047304609B010
:20518C00BDE8F08F627574746F6E5F736572766963652E6300C046C041747472696275744D
:2051AC006520776173206E6F7420666F756E642E00C046C02D20726573746F72696E672028
:2051CC00626F6E64656420737461746500C046C02D204F544120777269746500577269742E
:2051EC0065417474724342202843434344293A20706172616D3A20256420636F6E6E4861DB
:20520C006E646C653A2025642025730076E600002CE60000400500003C0500004405000007
:20522C004CE600008405000044E6000030E6000048E60000A01700202DE9F843814607F053
:20524C006DF9002100B901216B4E30680028FCD06C4D01242D1DEF6A346009B107F064F978
:20526C00DFF89881C7F3072008F1BC01086007F055F9002100B9214630680028FCD02F688A
:20528C00346009B107F050F9C7F38440C8F8C00007F044F90146002001B9204601463068DC
:2052AC000028FCD0ED69346009B107F03DF9C5F38120C8F8D000B9F5C061C8F8B81000F0ED
:2052CC00968098F8D80068B9C8F8D410D8F8C000C8F8C800D8F8BC70C8F8C470D8F8D06077
:2052EC00C8F8CC60D8F8D410D8F8BC60002954BF02206FF00100454605F1C8031A6801EB9E
:20530C0041014018411000EB917002EBA0021A60D5F8C810C5F8C46000291CDD1E293DDD98
:20532C00D5F8CC0030B93429B4BF15391E21C5F8C81025E02A29BABFD5F8C8000B381E2006
:20534C00C5F8C800D5F8C4003F28B4BF401C3F20C5F8C4001FE0D5F8CC00032812D011F16E
:20536C000B0FC6BFD5F8C8000B30201CC5F8C800D5F8C4000028CCBF401E0020C5F8C400AE
:20538C00032009E011F1150FC6BFD5F8C8001530201CC5F8C8000020C5F8CC00B5F8C40095
:2053AC00174E30214FF47F4208230090304604F0ADFF009404214FF400321123304604F08A
:2053CC00A5FFB5F8C80004214FF4F80212230090304604F09BFFB5F8CC0020214FF44062DE
:2053EC000A230090304604F091FFBDE8F883002088F8D800BDE8F88300800C4048150020E9
:20540C0000A00C4000A00C402DE9FC416F4C204607F068F915460E46009007F003FA05F0B4
:20542C0001078046B6F1FF3F0DD1606820B9B4F91200401C06B202E06068B0F91C606449DF
:20544C000020C91C0870304606F0C0F90326002800F0A4806168814270D0009FDFF848C1EE
:20546C00B84231D03FB100990A68904209D0096800290091F7D1832E44D0404607F0CEF983
:20548C0040E0604606F042FC00990868AA0803D202680B4601461A6000220A60009078B1B5
:2054AC000C340146C87F40F00400C877684606F0C1FD0146204605F0ABFD00980028F0D172
:2054CC00404607F0ABF91CE0604606F01FFCA8083ABF2068006800202060404607F09EF99F
:2054EC000C340099C87F40F00400C877684606F0A1FD0146204605F08BFD009808B1A808A0
:20550C00EFD2832629482C4A007890B928480078012846D0274806F0D5FF0221104606F09E
:20552C0005FE2648007801283BD0254806F0CAFF37E01046022106F0F9FD32E0A90803D301
:20554C002168009100262660C27F0121B9401143C17707F053F90646002F14BF19481A483D
:20556C0006F0E0F9404607F059F9A80811D3009878B10C340146C87F40F00400C87768463D
:20558C0006F058FD0146204605F042FD00980028F0D1304607F02EF9832602E0404607F0B6
:2055AC003DF93046BDE8FC817C290020CC2A0020CB2A00205D2E0000E8280020CD2A00204F
:2055CC00957300000100020401000104642A0020DC2900202DE9F04FADF1840D209000F0B3
:2055EC006DFF04F06FFE0024012804D106F0F2FC022808BF012459490868C0F381500128F7
:20560C0005D151F80C1C0120090E884004435448007806F039FADFF84C81DFF84CA1C8F88B
:20562C00000030B15246FF2107467F1E02F8011BFBD120990968002501F0FF02FE2A1BD0A5
:20564C00DDF880C052462B46012701F0FF06FF2E0BD0B04203D907FA06F6344201D00220C6
:20566C0079E001F0FF01354353545CF8041F5B1C01F0FF06FE2EEAD1092001F0C5FF3B4988
:20568C00209824220823086001A8002107F0AAF84FF0010901AA3E488DF81C90494607F0D9
:2056AC009DF8D8F800303BB33A4E00274FF0040BBA4609FA07F0044218D1054204BF07F034
:2056CC00FF0141F4C04104D027482099C05D51F82010274802F0E4F9F8B24FF0FF3106F0A9
:2056EC008FFBD8F80030C6F800A001E0C6F800B07F1C361D9F42DCD30AA800213022082399
:20570C0007F068F81B4D1D4A2878002410210AAB12901948009407F059F816A8282208239B
:20572C00214607F04FF8686816AA16491C9014481D94234607F042F8134A52F80D0C494627
:20574C0020F4F85040F4005042F80D0C0F4BC2F8FF1F2046196021B0BDE8F08FB43F0050C1
:20576C00D22A00203C250020A0290020C02A0020007FC767F4E50000E029002029BE0000F7
:20578C00B4280020A9A300000D30094008000940FC290020E82700202DE9F84F9A46934654
:2057AC000D46044607F03EF8DFF85C810AAFB8F91220B8F91010009040F6F870891A0840D9
:2057CC00082880F29280B8F91000401C6FF31F30A8F81000B8F9109006F044FA064604F1C5
:2057EC00700006F093FAB56086F81EB0C6F804A0F460A6F81C9097E80C0051A003C80025DD
:20580C001040F577D8F8002006F11007194087E80300002A5CD14046314605F0F9FB002892
:20582C005BD0A4F894904448F17F0778DFF8DCA041F08001F17784F8965067B151460F78F1
:20584C004FB1344A3449324B0570012015700A781870521C0A70009806F0E0FFD8F8040076
:20586C0000284ED15146087800282DD12B480078012846D006F0D6FF054629480078F8B9BE
:20588C00B06804F0E7F9284B2C4A26491B681268086038B9284606F0C1FF2448042106F0B7
:2058AC0045FC2EE0D0680968214C091AB1FBF3F1204606F0AFFF204606F0A8FF28461EE04B
:2058CC001C4901200870F9E7192006F04BFD18E04046314605F09CFB50B9B8F9100000F626
:2058EC00FF706FF31F30A8F810006FF0010905E0A4F89490F07F40F08000F077009806F0AA
:20590C008DFF4846BDE8F88F642A0020CD2A0020D12A0020CA2A0020D32A0020CC2A00200E
:20592C00CB2A0020A82A002020E60000E82800207C290020CE2A0020D02A0020B82A002025
:20594C00F1EFFF9F200000002DE9F04F694CA068ADF1440D002800F09D80DFF890914FF030
:20596C000A0B4FF0010A4FF000088FE006F05AFF21785F4BCA0002EB41129A18B2E8E0102E
:20598C0007ABA3E8E010E0CAE0C364CA4F1C07F01F0183E8640004F10C05627821708A42C5
:2059AC0008BF84F802A006F039FFBDF82000002808BF2E1C09D00346A62138A2284606F093
:2059CC00A7FA284606F046FC2E18079FB8B206F069F942A20CCA01F019F842A20CCA01F05F
:2059EC0015F804F06BFDA91B00902EA23B0CA631304606F08DFA284606F02CFC2A18A06827
:205A0C002946521B06F006FEBDF82200E0B106F0D1FEB9F8007037B909990A9F0346009141
:205A2C0024A2019720E00A9900910B9F01970C9E02960D9B03930E9A04920F9F0597109ED0
:205A4C000696099B02460FE00B9800900C9F01970D9E02960E9B03930F9A0492CDF8148033
:205A6C00CDF818800A9B099A2846A62106F050FA284606F0EFFB2A180D2002F8010B02F843
:205A8C0001BBA0682946521B06F0C4FDA07800283FF46CAF11B0BDE8F08FC046232530367C
:205AAC00752000C05B2025642E25303375205D2000C046C07B6576743A20666D743D2570B6
:205ACC002C20617267733D5B307825782C2030782578202E2E2E5D7D00C046C00000000009
:205AEC000000F03E0000000000408F408A050000080B0020500A00202DE9DF4F6548DFF859
:205B0C008CC1DFF874B1DFF874A1DFF87491DFF87481DFF874E1078856480E1C32A313D160
:205B2C000168002F5DD058460068014259D050460068014204D1484600680088014250D02B
:205B4C0040F23B572CA62DE0012E17D0022E48D1002A46D10168002F43D058460068014202
:205B6C003FD050460068014204D1484600680088014236D040F24C5723A613E0A2B90168D8
:205B8C00002F2ED05846006801422AD050460068014204D1484600680088014221D040F28F
:205BAC00415725A6002212E039480168CFB158460068014215D050460068014204D1484626
:205BCC000068008801420CD040F2455722A660460468009701967746464602923A8830689D
:205BEC00A0470090BDE8DF8F70726F6A6563745F7A65726F2E6300C050616972696E6720BE
:205C0C00737461727465640052652D65737461626C69736865642070616972696E67206685
:205C2C00726F6D2073746F72656420626F6E6420696E666F2E00C04650616972696E6720AC
:205C4C00636F6D706C65746564207375636365737366756C6C792E0050616972696E67201E
:205C6C006661696C65642E204572726F723A20253032780030E60000400500003C05000066
:205C8C00440500004CE600008405000044E600002CE6000076E600002DE9F0438046D8F87D
:205CAC000460D8F808700C46ADF1340D06F0BAFD3178012903D106F0B1FD0020A3E04FF021
:205CCC00010986F8009006F0A9FD207870706078B07060687060A068B060E068F0602069C3
:205CEC003061207D3075607D7075A07DB075A069B061207F3077607F00257077A07F3562C0
:205D0C003563102186F83C10B0772C4674627463B462B46386F82C4086F82D4086F83D40A1
:205D2C00786801F071FC404601F0D6FC404602F043FC78B935480068C06801463868884725
:205D4C00786801F08DFB06F06DFD347006F066FDA04657E001A821463022082306F03AFDAA
:205D6C00CDF818803A7B09920095294AB96806F1680001AB06F02AFD01A828220823214694
:205D8C0006F020FD396907912249CDF8148006F1840001AA234606F011FD01A82422082339
:205DAC00214606F01FFDB0788DF81C9038B906F1B800214601AA06F011FD17483061707877
:205DCC0038B906F1D400214601AA06F007FD1348F06001A821462422082306F037FD0694FF
:205DEC00ADF8144006F1F0000D49CDF81C800A2201AB06F027FD0B4A06F1540004214346C0
:205E0C0005F0B8FD40460DB0BDE8F083D0010010DD70000079A0000069C6000061C60000D4
:205E2C00F182000081C300002DE9FC415E4C574D574EDFF860815A4F94F8E410481E0B28DF
:205E4C0061D8DFE800F07B2C43062343062343067664042907D001220A2945F8212C14BFED
:205E6C000220032004E02021012045F8211C024684F8E200002045F8390C0827C5F8FF7F5F
:205E8C00C5F8F37F45F8392CBDE8FC81052914BF09200620002584F8E400356070E094F8BD
:205EAC00E1700120383D002FC5F81B0004BF0620002102D00021F160032084F8E4000320F4
:205ECC0045F8010C31603068800859D294F8E400012503280DD00021404660220523009110
:205EEC0004F014FA94F8E400062814BF0A200720D1E702200090002160220523404604F023
:205F0C0005FA0420C7E706F051FCBDE8FC812249002622480E60012505600E2001F0A0FA92
:205F2C00022005F069FA84F8E45084F8E360BDE8FC81002038600C2578601FE019480068C1
:205F4C0000680146202088472C3D41F61D560F2000214FF4C072072345F8010C4046C5F8E8
:205F6C0003600225009504F0D1F9404600214FF4C072072304F0D4FB0120386084F8E450C6
:205F8C0004F1780006F042FCBDE8FC8139400C4038600C4000A00C402C500C4004800C4005
:205FAC0034600C40A0010010481500202DE9F04F5D4C67690346ADF11C0D002F68D05148E9
:205FCC00DFF848A1DFF84891DFF84881DFF848B1DFF848C1DFF848E106882FA23BBB4A490D
:205FEC000968002E4ED05046006801424AD048460068014204D1404600680088014241D0A5
:20600C00704640F2E5460568009627A3019338790290A078039000260496634605965F4669
:20602C0006961E88386813463246A8472AE03D48016816B35046006801421ED048460068CC
:20604C00014204D1404600680088014215D0704640F2EA46056800961EA6019638790290C5
:20606C00039300260496674605965B46069618683E8813463246A8476769397907F10800B1
:20608C0005F054FF606905F081FF00206061A07007B0BDE8F08FC04670726F6A6563745F46
:2060AC007A65726F2E6300C053656E74206D6573736167652077697468206F70636F6465AE
:2060CC00203078253032782E20417474656D70742025640047617665207570206D657373B7
:2060EC006167652077697468206F70636F6465203078253032782E205374617475733A20FE
:20610C00256400C076E6000030E60000400500003C050000440500004CE60000840500002E
:20612C0048E600002CE6000008020020F8B5414C201D0368B3F1FF3F08BF002304F0C2F88D
:20614C00002876D13C4E20683468070F04F0FF04802C28BF002404F0B5F84FF0FF3578B115
:20616C00401E07D0401E012802D9801E13D014E08FB112E0381C5CD0801E0ED114340BE0A5
:20618C003846401E55D0801E53D0001F51D0401E03D1163400E00A3465B2162D49DB27486A
:2061AC002749002501270560264E0F60264C376020680028FCD1274A161D2449244F30682C
:2061CC0020F0030001433868C0080CD2106810F0030F0AD041F003003060106800F0030083
:2061EC000328FAD101E041F001011B483160006820B11A4800681846FCF706FA184819497F
:20620C000560194F0A686FF35B4247EA0200086016490868C0F30130012806D10A68144818
:20622C00104040F400320A60086020680028FCD1F8BDFEE718130050A0100050840460420E
:20624C005C600C40082204430C00684204000020B03F0050004003408001284300012043CD
:20626C008C210840482003400000390104000940FFFFFCFC70B5ADF1380D00F01FF932496A
:20628C0008682822082340F00200086001A8002106F098FA2D4EB0782E4907902C480023D9
:2062AC0001AA06F08BFA00213022082301A806F091FA002519213078284AADF81C5001ABAE
:2062CC0009902548009506F081FA2822082301A8294606F077FAF07822490790204801AA35
:2062EC002B4606F06BFA3022082301A8294606F071FA01241A2170781C4AADF81C4001AB75
:20630C0009901948009506F061FA194819492A46134606F097FA184806F0D4F81849194E94
:20632C000C70164835704FF6FF728283C577164B1D70164C257016490D70174E3560154AC1
:20634C0015700EB070BDC0460020094012E60000E828002001C10000182A0020DDBA00006F
:20636C001C290020797D0000342A0020B59C00007C290020C5B4000095730000C029002098
:20638C00CA2A0020CF2A0020CC2A0020CB2A0020D02A0020D12A0020AC2A00202DE9F04F19
:2063AC000C464549CA7AADF12C0D84460592487B09900D7900958A7A488B4B8A0E7B91F840
:2063CC0005A091F802800492B1F846E008904A7A088B0392CD7807900A7AC88A02920F6A59
:2063EC000690CA79888A01928A79E146A9F54079B9F11D0F10D8DFE809F05B5553514F4D24
:20640C004B494643413F3C3A380F34312E2B2923201E1C0F19181716BCF1280F49DA604698
:20642C0004F01EFA21E0099EB246D046CDF814801DE00898079007980690DDF818E005E01A
:20644C003831086820608888A08032E070460AE0B1F8440009E0B1F8420004E0B1F8400067
:20646C0001E091F83E00034612E0208021E0059804900498039001E03231E2E703980290F2
:20648C000298009006E0019A87310DE068310BE01846EAE7009D0BE02C31D2E7276008E0E0
:2064AC00583100E048311022204601F0A2FD00E025700BB0BDE8F08F081000202DE9F041F3
:2064CC00444C94F8E700ADF1280D00286FD1394F387B01250021242284F8E7507E6884F895
:2064EC00E6000823C4F80C6101A806F0AFF9002604F10C00069601ABADF814602E49079673
:20650C00324606F09FF92D4904F1300001AB324606F098F92A4904F1540001AB324606F04D
:20652C0091F9B868014628468847DFF89C8025487B7B0078D8F80410C1F381571BB1032FE5
:20654C0003D184F8E150032F16D0022F14D0012F26D103201D4C009031464FF040521C23B7
:20656C00204603F0D3FE009531464FF400720923204603F0CBFE13E0022004F055FF032F47
:20658C000CBF4FF47A7142F21071114800685434B1FBF0F1204606F03DF9204606F036F94E
:2065AC00D8F80000C00802D2304604F03DFF0AB0BDE8F08178E50000EB8B0000A9840000ED
:2065CC00FD890000D22A0020B03F005000A00C4020E60000481500202DE9F0430746880F32
:2065EC00ADF1140D75D303F067FD404D00261C352E60394845F81C0C012000F088F93748A8
:20660C0005F060FFBC68B14640F60A01344A6680537B118090465680107BC2F8049003F083
:20662C00F00300F0F000107343F00103537300E01C46636813B118888142F9D1C4F80480BD
:20664C00607B00F0F0006073264806F04BF880680088C91F81421DD0491C81421AD03B8C18
:20666C00C3B197F82C107E8497F82D00C7F8249001F0F00100F0F00087F82C1040F00100F0
:20668C0087F82D0007F12003C8F80430507B00F0F0005073B868694605F0C4FA684605F0A0
:2066AC0041FEB86801F03FF928680028FCD02E60012005F097FB012808D0607B00F0F000D0
:2066CC0040F001006073084805F0FCFEB86845F81C0C05B0BDE8F08301010E045D2E00007A
:2066EC00782A0020642A0020099B0000001004402DE9F04105F086FC3F4D3E4EDFF8FC80FD
:20670C000446A00820D330464168E9B1002242608B690A690F6922401A4342F0020205F141
:20672C0008038A611A68BA4301F110071A6097E80C002A680C301B1C9A432A6004F068FC06
:20674C004046022105F0F2FC7068A10815D200F1100191E80C00002702EA04013B40002BF4
