:20000000483F002091AA000001CA011001CA011001CA011001CA011001CA011001CA0110D6
:1C00200001CA011001CA011001CA011001CA011001CA011001CA01103FCA011082
:20003C001FB58DF80C002448016824480088E0B123480068014218D022480068014204D1FD
:20005C0021480068008801420FD0224840F23F53046800930CA201929DF80C001C4B029001
:20007C001A881A4B186804A3A047032003A901220AF044FD00901FBD70726F6A6563745F60
:20009C007A65726F2E6300C02843422920474150205374617465206368616E67653A20253F
:2000BC00642C2053656E64696E67206D736720746F206170702E00C0A8EC0000EEEC000085
:2000DC00400500003C05000044050000C4EC000084050000BCEC0000014908607047C046E5
:0400FC009C2D002017
:200100003C000000000000000000000034010000000000000000000001000000000000006D
:1C01200000000000000000000000000001000000000000000800000000000000BA
:20013C00340000000000000000000000680100000000000000000000010000000000000005
:14015C00010000000000000000000000080000000000000086
:2001700030000000000000000000000098010000040000000000000001000000FFFFFFFFA5
:10019000FF00000001000000080000000000000057
:2001A0002C0000000000000000000000C4010000040000000000000001000000FFFFFFFF4D
:0C01C000FFFFFFFF08000000000000002F
:2001CC0034050000E401000099A1011095A70110A5C2011009B2011045B80110000000000B
:0801EC00000000002E000000DD
:2001F400280000000000000000000000140200000000000000000000FFFFFFFF00000000B1
:080214000800000000000000DA
:20021C00300500003002000069C201106DC101101FC2011095BA011000000000000000008E
:04023C002C00000092
:20024000300500005402000075C20110A9B601109DBF011049B601100000000000000000DE
:040260002D0000006D
:200264002400000000000000000000008002000000000000000000000000000008000000CC
:040284000000000076
:20028800240000000000000000000000A40200000000000000000000000000000800000084
:0402A8000000000052
:2002AC00240000000000000000000000C8020000000000000100000000000000080000003B
:0402CC00000000002E
:2002D00000000000181E0020040000000000000000000000200000007001000030000000F3
:2002F0001C020000201E00200400000000000000000000000C000000300400001800000016
:2003100040020000281E002004000000000000000000000024000000480400001800000099
:2003300000000000301E002004000000000000000000000010000000A00100002C0000005E
:20035000CC010000381E00200400000000000000000000002000000064020000240000009C
:20037000FFFFFFFF401E002004000000000000000000000028000000880200002400000019
:20039000FFFFFFFF481E0020040000000000000000000000580000003C01000034000000FE
:2003B000FFFFFFFF501E002004000000000000000000000010000000600400001800000013
:2003D000FFFFFFFF581E00200400000000000000000000001C000000AC0200002400000089
:2003F000FFFFFFFF601E002004000000000000000000000038000000F401000028000000FA
:20041000FFFFFFFF681E002004000000000000000000000054000000000100003C00000095
:1804300018000000000000000000000040040000080000000000000050
:1804480018000000000000000000000058040000080000000000000020
:18046000180000000000000000000000700400000800000000000000F0
:08047800020000007CEC000012
:0404800009F00CBFB4
:040484000100000073
:0404880000008C0FD5
:04048C000000BC0FA1
:040490003200000036
:040494000100000063
:04049800A41D00207F
:04049C00000200005A
:0404A0000000000058
:0404A40001CA011078
:0404A8000000000050
:0404AC00000000004C
:0404B0000800000040
:0404B40000007612BC
:0404B800281C0020DC
:0404BC00010000003B
:0404C000BC1D00203F
:0404C400080000002C
:0404C8000000000030
:0404CC00000000002C
:0404D0000000000028
:0404D4000000000024
:0404D8000000000020
:0404DC00010000001B
:0404E000F41C0020E8
:0404E400060000000E
:0404E800010000000F
:0404EC00941B00203D
:0404F0000000000008
:0404F4000000000004
:0404F80000020000FE
:0404FC0000000000FC
:02050000704742
:020502002800CF
:020504000100F4
:020506002400CF
:020508002C00C5
:02050A002D00C2
:02050C002E00BF
:02050E000100EA
:0105100001E9
:080514000300000040EC0000B0
:08051C000000000000000000D7
:040524000000930D33
:040528000000AD0D15
:04052C0087C401106F
:04053000380500008A
:040534003805000086
:0405380000000000BF
:04053C0090610000CA
:0405400090610000C6
:0405440000000000B3
:04054800BC1D0020B6
:04054C00FBC80000E8
:040550002000000087
:0405540080EB000038
:040558003CEA000079
:04055C000DC30110BA
:04056000ABC000002C
:0405640007C40000C8
:0405680099C801101D
:04056C009BC8011017
:040570000000000087
:04057400B4CE000001
:0405780058E800003F
:04057C0070E8000023
:0405800040E800004F
:020584000280F3
:020586000380F0
:02058800C0179A
:02058A0001006E
:01058C00016D
:040590000000000067
:040594000000000063
:04059800000000005F
:04059C00000000005B
:0405A00031CD000059
:0405A400B1B20000F0
:0405A80085C1000009
:0405AC00D5B60000C0
:0405B0009BB80000F4
:0405B4009DBB0000EB
:0405B800A593000007
:0405BC0005CB00006B
:0405C000259D000075
:0405C40011C8011049
:0405C80021C8011035
:0405CC000800000023
:0405D0002400000003
:0405D400180000000B
:0405D80028000000F7
:0405DC0020000000FB
:0405E0003C000000DB
:0405E4000C00000007
:0405E80034000000DB
:2005EC002DE9F04FADF1940D00F006FF91489349934A04889048096800681268129000EA91
:20060C000107104014908F4806688F48119404888E48006816908E481397006817908D483D
:20062C001F910068189000EA0107199710401A908948209200681B9000EA01071040884AA8
:20064C001D9086481C97BC3A219200681E909AA015900820ADF820000A27ADF822704FF02E
:20066C00FF35099508A80AF0BFFE0028F1D100200F900827ADF830700925ADF832500CA80F
:20068C000AF0B2FEDDF838800028CDF83C8040F0AC81BDF834004FF00109102840F09D8159
:2006AC0089489DF836100078884240F09681454628884FF6FF71814200F092802F78913FCD
:2006CC0071D01F3F40F089816878119A162841D028797E282CD07F2818D01299171C5CD07F
:2006EC00139F002F59D0149F17B93088014254D040F2CD400090AAA7019728790290DDF882
:20070C005CC0159B16982246E04746E01299002A43D0139F002F40D0149F17B93088014247
:20072C003BD04FF49960009096A701972889E5E71899002A31D0199F002F2ED01A9F17B93A
:20074C003088014229D040F2C34000907EA70197287AD3E71B999AB11C9F8FB11D9F17B935
:20076C00308801420CD040F2AA4064A70090DDF85CC001972879159B029016982246E04736
:20078C00688808210BF07EFA38B9484605F0D2FE4D484FF0000905611FE1297905F108009A
:2007AC000BF0D0FE19E168780E2840F01681119F1299002F00F01181139F002F00F00D8122
:2007CC00149F1FB93088014200F0078140F28D4041A7009000250197DDF85CC0029575E0FE
:2007EC0068880009C0F0F98037480569002D00F0F48080783449B5F802B0401C887095F898
:20080C0004A010200BF0DAFC0835071C2AD0022115220CF06AF9A7F808B087F80AA0FD6037
:20082C000BF0DCFC684A39460AF004FC0546162D19D11DE0EEEC0000A8EC00004005000086
:20084C003C0500004405000084050000C4EC0000BCEC0000A4EC0000ACEC0000C0EC00004D
:20086C004C030020042518480069042D40F0AE80119F1B99002F00F0B0801C9F002F00F0EF
:20088C00AC801D9F1FB93088014200F0A6800E484FF4A06200690092ABA7019700790A4D2B
:2008AC000290A878DDF878C0039000220492174605973D46069509E070726F6A6563745FCC
:2008CC007A65726F2E6300C008020020159B16982246E04781E0C04648434920436F6D6DFD
:2008EC00616E6420436F6D706C657465204576656E74207265636569766564004F75746738
:20090C006F696E67205246204649464F2066756C6C2E2052652D7363686564756C6520743C
:20092C0072616E736D697373696F6E206F66206D73672077697468206F70636F64652030D3
:20094C00782530327800C046466C6F7720636F6E74726F6C2076696F6C617465642E204F40
:20096C0070636F6465206F66206F6666656E64696E6720415454206D73673A2030782530D4
:20098C00327800C04D54552053697A65206368616E67653A20256420627974657300C0467A
:2009AC0052656365766965642047415454204D6573736167652E204F70636F64653A20309D
:2009CC00782530327800C046DBCA0000408800210BF058F9284605F0ADFD0F9F2FB1B9F16F
:2009EC00000F02D040460BF0DDFDA148C0680CF057FA00287FF42DAE9D48C0680CF04CFA8C
:200A0C0082460246DDF844809AF808000AF10905002800F04183401E00F04482401E00F040
:200A2C001E81401E00F06284401E00F0E080401E00F0A280401E40F05C8400205FEA0807D3
:200A4C00DDF87CB0DDF848908DF8400005468DF8415015D0139F9FB1149F1FB9308819EA89
:200A6C00000F0DD04FF45F7093A7DDF85CC0159B009092A549462246019716980295E047CF
:200A8C009248C568B8F1000F20D019EA0B0F1DD0209819EA000F03D1308819EA000F15D044
:200AAC004FF49870A5A70090ABA3002101220197DDF878C002930F46169803923B46049189
:200ACC00224605974946069398A3E047B7490DF14100007808707D4901235FEA08074B8040
:200AEC00494623D0139F0FB3149F17B9308801421CD0AF78002F08BF99A203D0012F0CBF64
:200B0C009EA2A4A240F261107DA70090002301972888DDF878C002901F46039216980493A3
:200B2C003A46059781A306922246E0479F49A04B0620664F0090002238789B4F0190284649
:200B4C00029707F0B3FAD4E35265747279696E67206D6573736167652077697468206F7061
:200B6C00636F6465203078253032782E20417474656D7074202564001299B8F1000F02F1DB
:200B8C0009051DD0139FDFB1149F17B93088014216D0AF78002F0CBFBDA0C0A04FF43872DD
:200BAC00AEA70092DDF878C00197159B029000220392174604971698059222460697E0473B
:200BCC002D8810200BF0FAFA071C00F09283012113220BF08AFF3D810020B8720246FA6088
:200BEC000BF0FCFABC4A39460AF024FA81E31299B8F1000F02F1090522D0139F07B3149F82
:200C0C0017B9308801421BD02F78002F0CBFB7A0B9A06F78002F0CBFBAA2BFA240F2653359
:200C2C00B0A70093DDF878C00197159B029000270392169804973A46059222460697E0478F
:200C4C002F784FB13F1F40F05483012001466D1C2A4602F071FE4CE300200121F7E72F88B4
:200C6C0041F210103F1A05D0103F00F0F28040E3080200202B796F8805F10509002B00F02F
:200C8C0099805D1E24D01899B8F1000F00F03183199F002F00F02D831A9F1FB930880142A0
:200CAC0000F027834FF48C700090C6A70197DDF85CC00293C4E0C046257300C053656E64A8
:200CCC0020416C61726D20536A6B00C078130020C64D1299B8F1000F05F10405A5F1030B2F
:200CEC0000F08B80139B002B00F08780149B1BB93088014200F081804FF48A70BEA26CE0C5
:200D0C00547279696E6720746F2073656E64206E6F74692F696E643A20636F6E6E48616E1A
:200D2C00646C652025782C20257300C0736A6B5F736572766963652E6300C0465365745066
:200D4C006172616D65746572203A202573206C656E3A20256400C046534A4B3000C046C0FE
:200D6C001B5B33336D4E6F74692F696E642064697361626C65641B5B306D00C04E6F746955
:200D8C006669636174696F6E20656E61626C656400C046C0496E6469636174696F6E2065C2
:200DAC006E61626C656400C0813F000079130020881300208D4D1299DFF830B2B8F1000FE4
:200DCC0005F1020519D0139BBBB1149B13B93088014212D04FF48670A8A20090AD4B019310
:200DEC00DDF878C0029200230397169804931A46059222460693A3A3E047022F00DA0FBB0A
:200E0C001F9818995FEA080500F07382014200F070821A9D25B93088014200F06A82FFE7AC
:200E2C004FF492700090B3A50195012302971A460393DDF878C00492002505952F460697BC
:200E4C0090A317E1584649463A4607F065FB2F804FE2287969886D1DFAE6C046426F6E64F2
:200E6C004D6772205265717565737465642070617373636F64652E20576520617265202555
:200E8C00732070617373636F6465202530366400446973706C6179696E6700C053656E64F4
:200EAC00696E670028880FF284290FF2942E0FF2A82CB0F589507BD0103851D0F03840F068
:200ECC001882B5F8050080B3401E07D0401E08BFCDF888902BE0C046CDCA0000CDF888E07B
:200EEC0025E0C046257320257300C046427574746F6E203000C046C0427574746F6E203126
:200F0C0000C046C01B5B33336D72656C65617365641B5B306D00C0461B5B33326D707265C9
:200F2C00737365641B5B306D00C0CDF888C02F79002F40F0DE811299B8F1000F00F0D98103
:200F4C00139F002F00F0D581149F1FB93088014200F0CF81229A40F2094094A5964B7CE0EB
:200F6C00B5F8050048B1401E04D0401E08BFCDF88C9004E0CDF88CE001E0CDF88CC02879DA
:200F8C00012840F0B6811299B8F1000F00F0B181139F002F00F0AD81149F1FB930880142AB
:200FAC0000F0A781239A40F26640A9A5ACA354E0B5F8050018B3401E1AD0401E08BFCDF8F8
:200FCC0090901EE0536574506172616D657465723A20506172616D65746572202325642033
:200FEC006E6F742076616C69642E00C0E81A0020CDF890E005E0C0464C45443100C0CDF8A9
:20100C0090C02F79AFB17F1E40F073811299B8F1000F00F06E81139F002F00F06A81149FFA
:20102C001FB93088014200F064814FF47A70ADA311E01299B8F1000F00F05B81139F002F7E
:20104C0000F05781149F1FB93088014200F0518140F2DD30ADA3249AAEA5B2A70090019753
:20106C00029500270393049205973D460695DDF878C0159B16982246E0473AE14C454430A6
:20108C0000C046C06C65645F736572766963652E6300C046480D00002F8841F210103F1AAA
:2010AC0000F08C80203F40F024812F79002F5CD07F1E40F01E811299B8F1000F00F0198198
:2010CC00139F002F00F01581149F1FB93088014200F00F8140F239400090B1A7019768798B
:2010EC000290A8790390E87904900022059217460697BCE74C656E677468206F757473699D
:20110C00646520626F756E64733A204C656E3A202564204D696E4C656E3A202564204D61DF
:20112C00784C656E3A2025642E00C046496E6469636174696F6E7320656E61626C65640095
:20114C004E6F74696669636174696F6E7320656E61626C656400C0464E6F74692F496E6454
:20116C002064697361626C6564009F480021282207F006FF9C486D1D2722294607F0CCF9DB
:20118C0012995FEA080700F0B480139F002F00F0B080149F1FB93088014200F0AA80924A9F
:2011AC0040F2324075A72AA57BA357E7536A6B205365727669636500640D0000A978219AD2
:2011CC00681D08F0D5FA6F1D2D790FF2102943460FF20C28002D47D06D1E40F08A801299D9
:2011EC001D1C1BD0139DCDB1149D15B93088014214D040F2A930009060A50195794D5CA338
:20120C007A4ADDF878C002931698159B0392002204951546059222460695E04775483A7823
:20122C0080690A2109F08EFE119D1299002D60D0139D002D5DD0149D15B93088014258D0A7
:20124C003F7807B1C14640F2B13045A540E0C04644617461205365727669636500C046C0B8
:20126C0053747265616D00C01299DBB1139DCDB1149D15B93088014214D040F29A300090E7
:20128C003EA50195574D3AA3594ADDF878C002931698159B039200220495154605922246FB
:2012AC000695E04753483A7880690F2109F04AFE119D1299EDB1139DDDB1149D15B930884D
:2012CC00014216D03F7807B1C14640F2A2301CA500901FA70197002202951746CDF80C9039
:2012EC00C1E6C046425554544F4E3100507A02F0A9FF0820ADF82800CDF82CA00527ADF86D
:20130C002A700AA80AF070F8FFF76FBB425554544F4E3000427574746F6E20536572766942
:20132C00636500C043434344204368616E6765206D73673A2025732025733A20257300C0E3
:20134C001B5B33316D4C4544301B5B306D00C0465475726E696E6720257320257300C046BF
:20136C001B5B33326D4C4544311B5B306D00C0464C454420536572766963650056616C759C
:20138C0065204368616E6765206D73673A2025732025733A20257300537472696E6700C03C
:2013AC0056616C7565204368616E6765206D73673A2044617461205365727669636520531F
:2013CC00747265616D3A20253032783A253032783A253032782E2E2E00C046C06F66660092
:2013EC006F6E00C0900200204C0300200410000088100000080200202DE9F04F0820ADF132
:20140C00D40DADF830004FF00109ADF832900CA809F0EAFFA3489DF834108A4A01700E9914
:20142C0014888160894886492F90894809683090884831908848844E329088482C910FF23F
:20144C006C2B3390D4B13068014217D02F980068014204D130980068008801420ED03398F4
:20146C0040F29F1795A30568009700220193329F319B029218683A885B46A847894800278B
:20148C0005463946C7614C3528460BF001FD85480146C5600B46703103F1640007F020F9D3
:2014AC0035688049DFF8C4A22D958861F0B950460168CCB12846014216D02F9800680142A4
:2014CC0004D130980068008801420DD033984FF4D8768AA305680096329E0193319B0297FE
:2014EC00328818685B46A8470BF0CEFC6D486D4958307C3107F0F4F86A49486100BB504621
:20150C000168CCB12D98014216D02F980068014204D130980068008801420DD0339840F2CF
:20152C00B7167FA305680096329E0193319B0297328818685B46A8470BF0A6FC5948406933
:20154C008B490BF013FBF0B150460168CCB12D98014216D02F980068014204D13098006820
:20156C00008801420DD0339840F2BD1674A305680096329E0193319B0297328818685B4629
:20158C00A8470BF081FC03A83946242208230BF077FC4FF47A7A3225774E4248DFF8D481C6
:2015AC003268099703ABFC30BAFBF2F18AB26A4341460BF061FC04203A4A3168099003AB23
:2015CC0002F59070BAFBF1F189B24D432A4641460BF052FC4E46ADF8587040F205300DF100
:2015EC00AA0249468DF8AA6002F08CFF40F20630022116AA02F086FF2A4A4FF442704946DE
:20160C00521C02F07FFF274A40F2073011211546983202F077FF9835002C00F0C1802C9958
:20162C002D98014200F0BC802F980068014217D1309800680088014200F0B28010E0C046FD
:20164C00A8EC0000EEEC0000400500003C05000044050000C4EC000084050000BCEC000060
:20166C00104B3946202203F1DC0007F089FC3298339A319BB0F800A01068D3F800802E90CA
:20168C0038462A5C401CC0B22B5C4119092B18BF082B01D11F2A71DB1218D0B22028F0DB27
:2016AC0002E0C046080200206DE0C04670726F6A6563745F7A65726F2E6300C0496E6974BE
:2016CC0069616C697A696E67207468652075736572207461736B2C206861726477617265FA
:2016EC002C20424C4520737461636B20616E642073657276696365732E00C0464572726FE6
:20170C007220696E697469616C697A696E6720626F617264204C45442070696E7300C04623
:20172C004572726F7220696E697469616C697A696E6720627574746F6E2070696E7300C012
:20174C004572726F72207265676973746572696E6720627574746F6E2063616C6C62616312
:20176C006B2066756E6374696F6E00C0A4EC0000E5790000C99C000098EC0000B548491C73
:20178C00521E06F0C9FE40F2EF102E9D2C990090B04899A3524601935B4602904046A847B7
:2017AC000620A02109F006FE0720A02109F002FE0820A02109F0FEFD0920A02109F0FAFDA1
:2017CC0048461E2109F0F6FD15974D468DF8AB6038468DF8AC6004218DF8AD0015AA8DF8CB
:2017EC00AE504FF4816009F0CBFD4FF4806049460DF1AB0209F0C4FD40F2024049462BAA0B
:20180C0009F0BEFD40F2034049460DF1AD0209F0B7FD40F2064049460DF1AE0209F0B0FD4F
:20182C00032009F01DFF042009F01AFF8548864A132109F0F1FA8549032009F0DDFBB14DB9
:20184C00834A052105F10C0009F0E6FA2C990FF2D01ACCB12D98014216D02F980068014221
:20186C0004D130980068008801420DD033980568DA2705260097329BCDF804A0319F029616
:20188C001A883868A4A3A847A84806780AF026FAA5490028C8602DD00AF080FC0AF01EFA79
:2018AC00A149086130B30AF079FC9F48AF4A0721143009F0B1FA2C99D4B12D98014217D04E
:2018CC002F980068014204D130980068008801420ED0339840F20117056800970723CDF8D4
:2018EC0004A0329F0293319B3A881868A4A3A8478D4806708D48AB4D08264FF0040B07787B
:20190C00ADF83C602B78ADF83EB0980010900FA809F06AFD00280CBF11980020A249C86026
:20192C0028B30AF03BFCA048A04A06214C3009F073FA2C99CCB12D98014216D02F98006855
:20194C00014204D130980068008801420DD03398EE23066800930622CDF804A0329B0292BC
:20196C001A88319B18688BA3B0478F4807706F4808262B78ADF84AB00778ADF8486098006F
:20198C00139012A809F030FD00280CBF14980020C1498B460028C8605ED00AF0FFFBBF4AA3
:2019AC000BF11000062109F037FADDF8B490DDF8B0802646E4B118EA090F19D02F9800686D
:2019CC0018EA000F05D130980068008818EA000F0ED033980468F323062200933299CDF8D5
:2019EC0004A0319B02920A8818684146ACA3A0478BF8007035E0C0464E616D6520696E2062
:201A0C00616476657274446174612061727261793A201B5B33336D25731B5B306D00C04627
:201A2C005265676973746572656420736572766963652C20256420617474726962757465B2
:201A4C007300C046E416002028EC0000C1CC0000BCE90000E40200202646DDF8B080DDF855
:201A6C00B4903248274992A72C308860D6B118EA090F17D02F99096818EA010F05D130993D
:201A8C000968098818EA010F0CD03399E9230C68009332990197319B02900A881868414611
:201AAC001DA3A0472148204934308860DEB118EA090F18D02F99096818EA010F05D13099DA
:201ACC000968098818EA010F0DD033994FF489730C68009332990197319B02900A88186824
:201AEC00414627A3A04711482F494430886066B318EA090F29D02F99096818EA010F17D116
:201B0C0002E0C046E81A002030990968098818EA010F1AD00CE0C0466C65645F73657276A2
:201B2C006963652E6300C046641A0020080200203399FF230C68009332990197319B029053
:201B4C000A881868414613A3A0476748002E00F13C00CBF8080039D018EA090F36D02F997D
:201B6C00096818EA010F23D102E0C04638E9000030990968098818EA010F27D018E0C04607
:201B8C00627574746F6E5F736572766963652E6300C046C0646174615F736572766963650C
:201BAC002E6300C00C1000202419002064E9000033994FF482760C680096329B01973199A2
:201BCC0002901A88086836A34146A0470DF15A000021282207F0D4F941490DF18200282233
:201BEC0006F09AFC002001210DF15A0201F0A4FE01200DF15A02014601F09EFE0020282166
:201C0C000DF1820201F058FB012014210DF15A0201F052FBA87818BB33486E78EC782030FC
:201C2C00686218200AF0CAFA071C19D0042100220AF03CFE30460AF020FA38727C7200200F
:201C4C00B87205F14806FE6005F158033B6105F120027A610AF0C2FA224A394609F0EAF94F
:201C6C000C200AF0ABFA041C0BD0012104220AF03CFF1D482430A0600AF0B0FA21460AF057
:201C8C006FF80120102109F005FD0220102109F001FD35B0BDE8F08F78130020E8E90000B5
:201CAC00736A6B5F736572766963652E6300C046526567697374657265642063616C6C62BD
:201CCC0061636B7320746F206170706C69636174696F6E2E2053747275637420257000C057
:201CEC00D9E80000CDCC0000080200202DE9F04F0120ADF15C0DADF81A000827ADF81870BC
:201D0C0006A809F071FB00263546C04C8DF854509DF81C006070A6700898E0614FF6FF70A2
:201D2C00A08238460AF04AFA5FEA00080CD0012112220AF0DAFE0AF051FA15A90123D94A1A
:201D4C000091414609F094F99DF854000121DFF85883207032463346009104F1A8004146E6
:201D6C0008F038FB022104F1CC00324633460091414608F02FFB042104F1F0003246334622
:201D8C000091414608F026FB042031461022E07004F1480007F0F4F804F1580031461022D3
:201DAC0007F0EEF82562267266720720E67204F148021021A072022009F01EFC04F15802BE
:201DCC000320102109F018FC042004F12002014609F012FC19E0A078B4F84050B4F84230A2
:201DEC00B4F84420B4F8461006280ED1ADF84250ADF84430ADF84620CC48ADF848100AF052
:201E0C008DFF012010A907F03BF80A20ADF80A00ADF808704FF0FF35039502A809F0E4FAA4
:201E2C00002840F0E38130460C90ADF824700925ADF8265009A809F0D7FADDF82C90002812
:201E4C00CDF8309040F0D281BDF82800102840F0C18160789DF82A10884240F0BB814D4677
:201E6C0028884FF6FF71814200F0AC812B78A23B00F091812E3B40F0AD81A878B04600288A
:201E8C0000F05E81801E00F03681401E012840F20D81801E00F0BC80401E7FD0401E60D0D6
:201EAC00083800F06981801E40F06B8194F83E30A888052BADF834004BD001208DF83E0010
:201ECC009A480AF02BFF94F83E00012820D004281ED003280DD002280BD00C98C188ADF854
:201EEC0036100189ADF838104189ADF83A1080892BE0B4F84000B4F84250ADF83600B4F89B
:201F0C004430ADF83850B4F84600ADF83A301CE0B4F84000E9888842D8BF081CADF836005A
:201F2C002989B4F842008842D8BF081CADF838006989B4F844008842D8BF081CADF83A004D
:201F4C00B4F84610A889814200DC0146ADF83C1001E08DF83E60B24A0DA8122109F01AFC74
:201F6C000FE1B0480AF0DAFE6878002840F00981E888E08228892083688960836B480AF032
:201F8C0003FD002840F0FD80A56A002D00F0F9802B68E08A218B628B9847F2E0B5F804A023
:201FAC000A200AF00BF95FEA00080AD0012115220AF09BFDA8F808A00AF010F9414609F00C
:201FCC00CFFEBA483146062206F0DAFFE68226836683A879607355480AF0A0FE91480AF0C2
:201FEC009DFE4FF001084FF6FF706379A0824BB9A879082814BF04200520A07040460AF03F
:20200C006DFBBEE00320A070BBE0C0460C1000206878002840D1A549281D02680A60808876
:20202C0088800623A3706889A082E889E082288A2083688A6083E878207394F83E0001285A
:20204C0018BF022808D11F2008F0C8FE4FF47A714143364809F0D2F895F803B0B5F80AA013
:20206C0014200AF0ABF85FEA000800F08D80012114220AF03AFD88F808B02D1DC8F80C500E
:20208C00A8F810A0042088F812000AF0A7F8804A414608F0CFFF77E0687831286AD126711C
:2020AC00042022E0E9CA0000E9C600006878002860D1A878618AA278032811D020796579AB
:2020CC0021B9012814BF6671267105E0054303D0724809F093F8A278072AE1D1062004E06B
:2020EC00062A06D0207910B90320A0704CE00220FBE70720F9E7687800283BD1EB78A07873
:20210C00E179ABB9022818D0072816D0062802D16179012911D103280FD060480AF034FC0B
:20212C0058B901200AF0DAFA07E0C046D81000205F4A404608F0FEF868706878D0B920E040
:20214C006878B8B9564A0220102109F06FFA554A0320102109F06AFA5648ED1C29680160E4
:20216C00AB888380544A01252846A179A57008F0E1F848B1A77007E0A888464A102109F00A
:20218C00F0FAB8F1010F25D1606A18B3016809B3A07888471EE0687913281BD12889012819
:2021AC0008D1A07B022805D11E480AF0B7FD08F0DFFA0FE0052008F011FE0146194809F07E
:2021CC001DF807E06888C00B04D3374A0420014609F02CFA0C9848B1ADF810700320ADF8D0
:2021EC001200CDF8149004A809F0FEF8208A65792179420831D320F0010055EA0103208257
:20220C002BD08DB92D49207A8DF84A00657A8DF84B500A6813AB1A608988998007E0C046D2
:20222C00C7CC0000FC10002003208DF84A00A07AE57A194A8DF8520006218DF853500DF1E1
:20224C004A0008F041FC616A30B1A77021B1086810B1096838468847208A810807D3184901
:20226C0020F002002082304606F00AFE208AC108FFF4CBAD20F00400A57B2082681E3FF4BD
:20228C00AAAD401E7FF4C1AD08F072FABDE5C046BFCA0000EBCC0000DFCC0000B4100020C1
:2022AC0054100020641000202C100020441000209310002038100020741000203E100020ED
:2022CC004A1000202DE9F84F8046DD480122A0F130010A60D7490F68002FFCD0D74ED64A0A
:2022EC00C02706F1040B1760DBF80010890804D23168090C41F0F00100E07221E34AE44D83
:20230C004FF0000982F85412A5F1D407C0F80090D6F808A03868C0F304600AF0A7FB52466F
:20232C00534600EB2270401C162805DA10F10A0FB8BF6FF0090000E01520E649E64F00F0A0
:20234C001F0040F4F8500880386880083ABFE348C0F8009042F04062E149A5F13C04D00E08
:20236C00970E80F0010000F00100086087F0010000F0010088602068C0F38367C0F38F2109
:20238C005FEA9A4022D243F3072000280BD542424846490805D17F0806BF0127391C4FF66E
:2023AC00FF71521EF5D1002810DD4FF6FF72490041F001018A4207D27F0047F001070F2F83
:2023CC0092BF01210F27111C401EF0D141EA0741182009F08FF820682768C34CC0F3870170
:2023EC0040F2FF324B4607F0030041EA0021274688B22C210090A7F1400008F025FAA5F18E
:20240C0010073868C0F30D011C2009F073F8B54957F8080C014000F07C400143142009F0D9
:20242C0069F857F80C1C01F47C000904090C0143102009F05FF857F8042CDBF80010C2F34A
:20244C000350C2F30343490812D231680E0510EB267003D41028A8BF0F2000E04846090490
:20246C0013EB217303D4102BA8BF0F2300E04B4643EA001302F47F4002F0FF01B8F1220FE1
:20248C0040EA034041EA000124BF02F0804211430C2009F02FF8B8F1220F32BF01202868E4
:2024AC00C0F30070B8F1220F4FEA400040F0200084F8090126BF2868C0F3407001208B4EF2
:2024CC00B8F1200F40F0100084F8090138BF494606D33168C80C00F44070C1F38451014315
:2024EC00282009F007F8B8F1200F26BF3068C0F301504846B8F1220F4FEA400040F06000C6
:20250C0084F80C0126BF2868C0F3C0604846B8F1220F4FEAC00040F0800084F8010126BF6A
:20252C002868C0F345504846B8F1200F4FEA800040F47C40A4F89C0138BF6D490AD330684D
:20254C0001038A15920501F47C1100F00F00114341EA0031082008F0CDFF2E464FF48000E1
:20256C002060A6F1D000816D40F20F226FF31F418A4213D901680068C1F30367C0F30340B8
:20258C0007B17F1E072805D006280EBF0720801C00F00F003D4947EA00100870CAF3814755
:2025AC007F1E02D07F1E28D023E03168880C20D24FF4804020604F48D0F802204B0AC1F3DC
:2025CC00033703F0800322F08F02134347EA0302C0F80220D0F801300F0A67F30303C0F80C
:2025EC000130026801F0E70722F0E70247EA020102E04FF0004120460160DBF80000C0F377
:20260C00C0070FB94020A0624FF400703E4F206428684FF04008C0F3C14040F0300084F852
:20262C00C800CAF38150A8B3401E0BD0401E28D0022127E09402224300600C40AC3F005042
:20264C0040100940012009F0D9FE05460420294607F084FF042009F0D1FE8542FAD12648A0
:20266C00056825F07F4009F0A3F9384614300068036807214FF06022280E98474FF48060C2
:20268C0020600321042007F069FF0AE0026008408C1300500420012107F060FF174809F090
:2026AC0087F9203E30681649164B47F6180500F03F0084F8CB0F3A460D8018681068C168CB
:2026CC00022088471248114EC0F8008001213160BDE8F88F6E6208400000094094042A43C7
:2026EC0000002043FCFCFC0040A00C409813005000803F400A600840A83F0050BD378600EE
:20270C0070B00C402C200940A00100109404604200600C402DE9F04FADF11C0D07F0A0FA68
:20272C00AB4FAC4E00240122052307F10C003060A949009407F04EFEB04D05F1280005F1BC
:20274C001C0105F0CDFFAF4968610AF00FFAAC610AF012F909F08CF905F090FEDFF8A8A297
:20276C00DFF8AC92DFF8AC82A84EE8B9514630880968C8B148460068014215D04046006857
:20278C00014204D1B0480068008801420CD0B1489F27A6A305680097AD4F0193AB4B0294E6
:2027AC003A8818689DA3A8470AF058F8274600B10127514635880968381C049114D008F082
:2027CC00ADFA0C2006F000FD8C49FF2001220F4608712046391D0AF057F928B1384600796C
:2027EC00482808BF012600D026460AF0D7F904998DF80C60DDB148460068014217D04046A7
:20280C000068014204D190480068008801420ED09048A82706680097ACA301938C4F9DF844
:20282C000C008A4B02903A8818687CA3B04706F079FD012009F012F80499CDB14846006820
:20284C00014215D040460068014204D17E480068008801420CD07F48AB27A0A30668009788
:20286C007B4F0193794B02943A8818686BA3B047682006F0A9FC092003A98DF80C006B2039
:20288C0009F09AFA00283BD02F208DF80C0003A96C2009F091FA002832D001208DF80C00F4
:2028AC0003A91D2009F088FA002829D040208DF80C0003A9382009F07FFA08B3C0208DF800
:2028CC000C0003A9692009F077FAC8B14F208DF80C0003A91F2009F06FFA88B10B208DF892
:2028EC000C0003A91E2009F067FA48B108F0D6F9292003A98DF80C006B2009F05DFA10B992
:20290C000AF04CF9DFE00AF049F909F09DFF48464D4E049900684E4B4C4A474601EA000BFC
:20292C00D6F8009038681F88002D01EA0008494B10681E68059041D0BBF1000F3ED0B8F11C
:20294C00000F03D1B9F80000014237D0DD20009066A30193029405983A4630A3B0472DE0D9
:20296C001C4800680AF010F801281AD1194800680AF0D4F90499A5B1BBF1000F11D0B8F1A1
:20298C00000F03D1B9F8000001420AD04FF4827000905BA301930022029205981FA33A468E
:2029AC00B0478DF80D4006200DF10D01012208F0ADF809F049FF08F0E9FB00245A484FF02E
:2029CC00FF310AF055FA0248806801285ED105E0941C0020702D0020A1C600000748534924
:2029EC00406908F09BFB3A2005F0FAFC5248006809F0CAFF002849D102E0C046601C0020C5
:202A0C000AE0C04641C80000A8EC0000EEEC0000400500003C0500001EE0C04653656E7320
:202A2C006F725461736B2E6300C046C053656E736F724D7075393235302052657374204520
:202A4C0072726F7200C046C044050000C4EC000084050000BCEC0000374800680AF05CF97F
:202A6C0004999DB1BBF1000F10D0B8F1000F03D1B9F80000014209D0EF20009025A3019370
:202A8C000022029205982E4B3A46B047B4F5167FBFF666AF27480021062206F071FA08F0CE
:202AAC0075FBDFF88CA02549A244C870400802D3204808F03DFE1F4A50461168938801605F
:202ACC00A41D83807AE707B0BDE8F08F726574752076616C203D20256400C0466D61672066
:202AEC00696E697420656E6400C046C07374617274206D61696E207768696C6500C046C007
:202B0C005574696C5F73746F70436C6F636B282900C046C05574696C5F7374617274436C09
:202B2C006F636B282900C046C802002007000080E8130020742D0020702D0020941C00201B
:202B4C00282A00002DE9F04F09AFADF13C0D1E460025DFF8F891DFF8F881DFF8F8A10890E2
:202B6C003C8838790A92DFF8F0B10B90FF200D9008780991022809D10846494640680F882F
:202B8C00008842F60213834200F0E880099807F04BF907464946ACA2002F0B880C979946ED
:202BAC0040D07F1E1FD096480168D3B195480068014216D094480068014204D140460068EA
:202BCC00008801420DD0934840F22A2797A6046800978F4B01968D4F02951A8838688FA34B
:202BEC00A0470A2009E150465F46B9F1000F4FF0140A0168079707F1040B3FD0814800682F
:202C0C0001423BD080480068014204D1404600680088014232D0804840F225230768009313
:202C2C009AA31DE050465F46B9F1000F4FF0280A0168079707F1020B20D072480068014288
:202C4C001CD071480068014204D1404600680088014213D0704840F21723076800938DA351
:202C6C000192029308980390049605940B98684B06901A88654B186868A3B847A24530DDFE
:202C8C003719BA4521DA5E480168B9F1000F1AD05C480068014216D05B480068014204D1D4
:202CAC0040460068008801420DD05A4840F235230768009379A20192554B0295534D1A881D
:202CCC00286856A3B8470D252CE009980A99C0683246201805F020FCABF800700C980D90A1
:202CEC0020E047480168B9F1000F1AD045480068014216D044480068014204D14046006815
:202D0C00008801420DD043484FF40C73076800936BA201923E4B02953C4D1A8828683FA353
:202D2C00B84707250D98FF280DD00798806850B1076847B1A419A0B200900C9A0A9B08983A
:202D4C0041F23011B847284657E0C046EEEC000044050000A8EC0000241900205046006837
:202D6C00002F81462ED02748006819EA000F29D02548006819EA000F05D14046006800883E
:202D8C0019EA000F1ED00B98FE280CBF0FF254180FF26C18099807F047F81F494FF4FE73AE
:202DAC000F68009359A20192029008980390CDF8108017490595154B06950A8818684946BF
:202DCC0016A3B847089809990A9A0094334606F037FD05465846083007686DB967B1786864
:202DEC0050B1099807F020F8009602460A9B7C68089841F23011A047E8B20FB0BDE8F08F37
:202E0C00A4EC0000400500003C050000C4EC000084050000BCEC0000C0EC00006461746169
:202E2C005F736572766963652E6300C041747472696275746520776173206E6F7420666F60
:202E4C00756E642E00C046C05772697465417474724342203A20257320636F6E6E48616E09
:202E6C00646C6528256429206C656E28256429206F666673657428256429206D6574686F40
:202E8C0064283078253032782900C04653747265616D00C0537472696E6700C0496E7661D3
:202EAC006C69642076616C7565206C656E677468207761732072656365697665642E00C02E
:202ECC00416E20696E76616C6964206F666673657420776173207265717565737465642EFE
:202EEC0000C046C02D20726573746F72696E6720626F6E64656420737461746500C046C043
:202F0C002D204F5441207772697465005772697465417474724342202843434344293A2026
:202F2C00706172616D3A20256420636F6E6E48616E646C653A202564202573002DE9FE4F79
:202F4C00B84C0F460646F80B80F04781B80880F0D480B54DDFF8D892DFF8E0B2DFF8E88214
:202F6C00DFF8F4A22C68B80F67D2B0480678002E47D1380947D3AF480126494606700024E6
:202F8C000C70204604F00FF8AB48FDF7ADF8AC492246584609F0B5FEAA48017801291CD193
:202FAC0041460B78CBB9A94E306880B109F01AFC2B68A8493668A64D0A68C01A000B8218A2
:202FCC002860B2EBC61F28BF0C6007D20A60A4484FF0005109F0C2FB2CE00670504640F6C5
:202FEC0009010180417B01F0F00141F0010141734480017B01F0F00101734460974E306006
:20300C0018E0390914D2B80BC0F004819D48001D09F080FE061C08D0706830B17468F0682C
:20302C00B6F91C1098A20CCAA04727F40057F1E00021017027F00807ECE0ECB1042009F031
:20304C00DDF9C8B109F0CEFB864A29681060814226BF401A401E401A000BF060F06800F520
:20306C008D70F060F16840F6C410884203D340F2EE228A4200D9F0600024D6F818C02C6067
:20308C00BCF1000F10D050460D30007810F00F0F0AD1708C40F60901814205D17CA20CCA7B
:2030AC0030466FF48071E0476F495846224609F028FE4546287850B10220ADF80000684695
:2030CC0008F03CFF2C70BDF808006849088049460120674A674B087010781C70401C1070A4
:2030EC00192009F061FC756925B16BA20CCA30462146A84727F000578CE004F10C0A504657
:20310C0009F008FE061C5FD008F004F97368B2690025B561E3B1F37F42F002024FF00009A9
:20312C00904603F007035B1E07D05B1E03D09B1E06D15BA002E05CA000E05DA090E8000353
:20314C007268F068B6F91C104B4694464246E04709F08AFE8046B4F91200401C6FF31F3029
:20316C006082E0681F30017801F07F010170504609F06CFA404609F073FEF068B0F99410E5
:20318C00B4F9122091421FD13B49097801291BD090F896409CB904688CB1384909680968A8
:2031AC00B1F1FF3F10D0364909687030B4FBF1F109F052FEF068703009F04AFE04E080F844
:2031CC009650284606F0D2FB504609F0A3FD27F0020708B147F002071CE009F045FE014605
:2031EC002046083009F096FD0646B469084609F037FEA0080CD25EB17068B169A143B16137
:20320C0030B17568F068B6F91C1000232246A84727F480471FB11248394609F09FFABDE875
:20322C00FE8FC046382D00208C2D0020B12D0020AD2D0020AB2D0020BD920000EC2C00201A
:20324C00F5C00000AF2D0020AA2D0020882D0020942D0020842D00204C2D00200010044046
:20326C00E82B0020902D0020856C0000B02C0020B32D0020AC2D0020A01E0020982D002089
:20328C0098EC0000382D0020000000002000000000000000000000020000000000000004F3
:2032AC000000000000000010000000000000004000000000000000202DE9F04F05467F482B
:2032CC007F4CADF13C0D0FF2442C0F46DFF8F4A1DFF8F491DFF8F4810088DFF8F4E107908B
:2032EC002E1C0890E068099245D0761E21D0BD48079F0168002F00F0DD80BB480068014225
:20330C0000F0D880B9480068014205D1504600680088014200F0CE80B5484FF49A7771A668
:20332C0004680097434601964F4602951A88386876E0089E8346231D04F1100270461421F9
:20334C000B93002E0A9205680C914FF001030D933FD0A548006805423BD0A44800680542BB
:20336C0004D1504600680088054232D04FF498736DA200211CE0089EA31C704604F12402ED
:20338C0000210B9305680A920D9128230C9306B39548006805421CD094480068054204D140
:2033AC00504600680088054213D040F2251360A2904806680093CDF804C0029203970491C0
:2033CC0005914346069149461A88086841A32946B0470C98B84226DA8248089E0168002E9B
:2033EC0068D081480068014264D080480068014204D150460068008801425BD07D4840F2AE
:20340C004D16046800964CA501950297002303930C9A0492464605934D460693328828688C
:20342C002CA3A04746E00A9809993A4605F074F80D9E0B98002E07803CD00798294600283A
:20344C002BD069480068014227D068480068014204D150460068008801421ED0654B4046F5
:20346C004E4602889BF802701D683068002F19A308BF3FA703D0012F0CBF44A749A74FF47C
:20348C00A27600964CA60196BBF80060029603970027049705970697A84706200090564F5F
:2034AC000A99207804F14C03002201905846029704F0FCFD0FB0BDE8F08FC046EEEC0000E7
:2034CC002419002044050000C4EC000084050000A8EC0000646174615F7365727669636583
:2034EC002E6300C0536574506172616D657465723A20506172616D657465722023256420BB
:20350C006E6F742076616C69642E00C0536574506172616D65746572203A202573206C6560
:20352C006E3A20256400C04653747265616D00C0537472696E6700C04C656E677468206FD4
:20354C0075747369646520626F756E64733A204C656E3A202564204D696E4C656E3A2025E8
:20356C0064204D61784C656E3A2025642E00C0461B5B33336D4E6F74692F696E6420646925
:20358C007361626C65641B5B306D00C04E6F74696669636174696F6E20656E61626C65640F
:2035AC0000C046C0496E6469636174696F6E20656E61626C656400C0547279696E6720747B
:2035CC006F2073656E64206E6F74692F696E643A20636F6E6E48616E646C652025782C2005
:2035EC00257300C0A4EC0000400500003C050000BCEC0000C0EC0000994900002DE9F04FC6
:20360C0009AFADF13C0D08900A92388809911E46ADF81800101C08BF002000F08481002721
:20362C0000F101094FF0FF3A4FF0010BB8466CE1252940F063811078521C0A922D2818BF55
:20364C00ADF8068005D15846551CADF8060010780A9530281CBF4246434605D10A9908783F
:20366C005A465B46491C0A912A28CDF80080554616D1306804930A99CDF808A0C01C4B1C62
:20368C0020F00300001D306050F8044C0A93002C0878009418D5ADF806B06442009413E074
:2036AC0044460AE0610001EBC40140180A99A0F1300408780094491C0A91302801DB3A280E
:2036CC00F0DBCDF808A004932E282BD10A9908782A2801F101010A9111D13068CDF80880F2
:2036EC00C01C20F00300001D306050F8045C002D48BF454608782B46491C0A9111E045464E
:20370C0043460AE0690001EBC50140180A99A0F1300508782B46491C0A91302801DB3A28C7
:20372C00F0DB02930AB1224604926C2804D04C2818BFADF8048005D10A990878ADF804B036
:20374C00491C0A910BA9CDF80C800FAB07916428059300F08B80692800F08880BDF818C0D1
:20376C00752872D078286ED06F286AD0702850D063283DD073281ED009980A990128A1F1D7
:20378C0001010A9115D96B490C68B5F1FF3F03D0A84288BF6D1C00D8099D029508A80AA981
:2037AC0032466B46A047C7190A99039801F1010974E040462AE030680A99C01C20F00300C5
:2037CC00001D306050F8040CBCF1000F01F10109014608B955A00146079109F05DF8039063
:2037EC00B5F1FF3F5BD0A842C4BF281C039056E03068C01C20F00300001D306010F8040CE8
:20380C005D468DF82C000A990395584601F1010945E0082035680490E81C20F00300001DC1
:20382C00306050F8041C082210230FA805F060FE401E0790402101700A99079801F1010918
:20384C0029E0082302E0102300E00A230A99306801F10109C01C20F00300001D306050F8EB
:20386C00041CAA42BCBF2A1C049210E00A99306801F10109C01C20F00300001D306050F8CE
:20388C00041CAA42BCBF2A1C04926FF009030FA805F02EFE0790059D281A0390009C241A8E
:2038AC00BDF8065000945DB906E008A8202109AA08F01AFB009C7F1C641E0094F5D50398FE
:2038CC000546401E039075B9BDF80600E8B10098401E009019D408A8202109AA08F004FB10
:2038EC0000987F1CF4E70798411C0791017809AA08A808F0F9FA03987F1CE1E708A809AAF2
:20390C0008F0F2FA7F1C09F101094A460A9812F8011C401C00290A907FF48AAE089808B19C
:20392C004146017038460FB0BDE8F08F286E756C6C2900C0D0EC00002DE9F04F0546BE4CF0
:20394C00BC48DFF800B3DFF800A3DFF80093DFF80083DFF804E30F46ADF1340D0FF2FC1C84
:20396C002E1C0892E1680288206907923CD0761E20D0B2480168171C00F0CF80B04800689D
:20398C00014200F0CA8058460068014205D1504600680088014200F0C080AE484FF4A57731
:2039AC0064A604680097434601964F4602951A883868B0E00B90A61D7046A31C002A0A9633
:2039CC00056809933AD09E480068054236D058460068054204D150460068008805422DD041
:2039EC004FF4A37364A217E0261D7046631C0B910A96056809930AB39148006805421DD076
:203A0C0058460068054204D1504600680088054214D040F23B135AA2904806680093CDF8AD
:203A2C0004C0029203970021049105914346069149461A8808683AA32946B047022F46DAE7
:203A4C00002F44D0099808993A4604F065FD079E0A982946002E07802BD07948006801422D
:203A6C0027D058460068014204D150460068008801421ED040460B9E0288784B4846B77835
:203A8C001D680068002F26A308BF3FA703D0012F0CBF44A749A74FF4AD7600964CA601965A
:203AAC000B9E3688029603970027049705970697A8470720009020780190694F02970B98A3
:203ACC00099904F11403002204F0F0FA25E05C4D5A4C07982A682168061C1ED011421CD0CF
:203AEC0058460068014204D1504600680088014213D05A4840F26716046800963FA5019523
:203B0C0002970123039300220493464605924D4606923288286802A3A0470DB0BDE8F08F88
:203B2C00627574746F6E5F736572766963652E6300C046C0536574506172616D6574657269
:203B4C003A20506172616D6574657220232564206E6F742076616C69642E00C05365745087
:203B6C006172616D65746572203A202573206C656E3A20256400C046425554544F4E310081
:203B8C00425554544F4E30001B5B33336D4E6F74692F696E642064697361626C65641B5BF2
:203BAC00306D00C04E6F74696669636174696F6E20656E61626C656400C046C0496E646980
:203BCC00636174696F6E20656E61626C656400C0547279696E6720746F2073656E64206ED8
:203BEC006F74692F696E643A20636F6E6E48616E646C652025782C20257300C04C656E67C8
:203C0C007468206F75747369646520626F756E64733A204C656E3A202564204D696E4C65A3
:203C2C006E3A202564204D61784C656E3A2025642E00C046EEEC0000641A0020A4EC0000A3
:203C4C00400500003C05000044050000C4EC000084050000BCEC0000A8EC0000C0EC000068
:203C6C00594700002DE9F04F09AFADF13C0D08900B9397F804B00A923F880991084606F0EA
:203C8C002BF9B149DFF8C8A2DFF8C892DFF8C882B74B0E8800240546FF2084A2002D0D9051
:203CAC00B149B2480C953DD06D1E1FD0A7480168D6B150460068014216D04846006801429D
:203CCC0004D140460068008801420DD0A54840F2ED176FA605680097A14B01969F4F02942A
:203CEC001A88386866A3A8470A20C5E000F1040C002E07900968CDF838C03CD050460068B1
:203D0C00014238D048460068014204D140460068008801422FD018464FF4F473056800937E
:203D2C0073A319E000F1020C07900968CDF838C00EB35046006801421DD04846006801427C
:203D4C0004D1404600680088014214D018464FF4ED730568009368A301920293089803907E
:203D6C000B9A049205977E4BCDF818B01A887B4B186843A3A847002F4CD10B9D60A2ED1951
:203D8C00022D28DACDB9BBF1180F18BFBBF1120F13D150466D4900680968002E38D0014267
:203DAC0036D048460068014204D140460068008801422DD040F201261FE009980A990B9AEC
:203DCC00C068381804F0A8FB002D42D00C980D900E9E35803DE05D480168CEB1504600683F
:203DEC00014215D048460068014204D140460068008801420CD04FF4FC765A480568009692
:203E0C00574B0192554E02941A8830681CA3A8470D241EE04D480168D6B15046006801424B
:203E2C0016D048460068014204D140460068008801420DD04B4840F2F3163AA3056800963E
:203E4C00474E0193454B0294328818680CA3A84707240D98FF280ED00798806858B106685C
:203E6C004EB10B980C9A0A9B3F18B8B20090089841F21011B04720460FB0BDE8F08FC046BE
:203E8C006C65645F736572766963652E6300C04641747472696275746520776173206E6FDE
:203EAC007420666F756E642E00C046C05772697465417474724342203A20257320636F6EB5
:203ECC006E48616E646C6528256429206C656E28256429206F666673657428256429206DFB
:203EEC006574686F64283078253032782900C0464C45443100C046C04C45443000C046C00D
:203F0C00496E76616C69642076616C7565206C656E67746820776173207265636569766581
:203F2C00642E00C0416E20696E76616C6964206F66667365742077617320726571756573A6
:203F4C007465642E00C046C0EEEC0000A4EC0000400500003C05000044050000C4EC00003B
:203F6C0084050000BCEC0000A8EC0000E81A0020C0EC00002DE9F04F834609AF0846ADF1E0
:203F8C00340D0993B988089297F808A007903E880A9105F0F9FF05460022A0499E480B9268
:203FAC00A04CDFF88492A64B0788A44A888849880FF2DC1C002D3AD06D1E20D098480168D9
:203FCC00DFB120460068014217D048460068014204D196480068008801420ED0964840F240
:203FEC00E11764A604680B9D0097924B0196904F02951A8838685BA3A0470A20AFE00C90A2
:20400C00204600681468002F804639D014EA080F36D0494609680C4204D1844A1168098836
:20402C000C422DD0184669A24FF4EE7315E02046006814680C91804617B314EA080F1FD0AC
:20404C00494609680C4204D1784A116809880C4216D018465FA240F2D11305680093CDF8F7
:20406C0004C00292CDF80CB004967249CDF814A00B986F4B06900A881868214639A3A84756
:20408C000C98B0424ADB002F254637D015EA080F18D049460868054204D164480068008803
:2040AC0005420FD0644840F2EF134CA2046800930A9901925F4B02915D491A88086829A30A
:2040CC002946A047D7B115EA080F17D049460868054204D155480068008805420ED056488E
:2040EC004FF4F87740A30468009752490193504F02960A8838681BA32946A0470C980A9929
:20410C00801B8842D4BF82B20A1C099802800798C0683118089804F0FFF91FE04048016892
:20412C00D7B111EA080F17D048460068014204D13E480068008801420ED03F484FF4F47718
:20414C002CA604680B9D00973A4B0196384F02951A88386803A3A04707200B900B980DB0AB
:20416C00BDE8F08F736A6B5F736572766963652E6300C04641747472696275746520776134
:20418C0073206E6F7420666F756E642E00C046C052656164417474724342203A2025732031
:2041AC00636F6E6E48616E646C653A202564206F66667365743A202564206D6574686F64EB
:2041CC003A2030782530327800C046C0534A4B3100C046C0534A4B3000C046C06D61784CBD
:2041EC00656E203D202564006F6666736574203D20256400416E20696E76616C6964206F08
:20420C00666673657420776173207265717565737465642E00C046C0EEEC000078130020A4
:20422C00A4EC0000400500003C05000044050000C4EC000084050000BCEC0000A8EC00009E
:20424C00C0EC00002DE9F04FA549A64EA64DA74CDFF89CB2DFF89CA2DFF89C92DFF89C8255
:20426C000F88401EADF1240D00F09080401E75D0801E61D0401E4DD0401E2ED0401E17D0E0
:20428C00401E40F0C9803168002F00F0C5802868014200F0C1802068014205D15A46106881
:2042AC000088014200F0B8804FF4537060A766E03168002F00F0B0802868014200F0AC80D5
:2042CC002068014205D15A4610680088014200F0A3804FF4507058A751E040F2153004A9E4
:2042EC0002F020FB04A806F09DF83168002F00F093802A68114200F08F802268114205D10C
:20430C005A4612681288114200F0868040F23B3750A676E03168002F7ED0286801427BD070
:20432C002068014204D15A4610680088014273D04FF4527051A722E03168002F6CD0286818
:20434C00014269D02068014204D15A4610680088014261D04FF451704EA710E03168002F70
:20436C005AD02868014257D02068014204D15A461068008801424FD040F231304AA742465F
:20438C00146800900197002602963FE04FF4417006A902F0C7FA9DF819308DF81130002175
:2043AC008DF814109DF81A208DF813109DF818008DF812209DF81D308DF810009DF81C2025
:2043CC008DF8173004A98DF816209DF81B304C4A8DF81530086810604B68536006A806F073
:2043EC0021F83168C7B12A68114215D02268114204D15A461268128811420DD04FF44B7722
:20440C002CA64246146800970196029053464D4618682A8802A3A04709B0BDE8F08FC0462D
:20442C0070726F6A6563745F7A65726F2E6300C04572726F7200C046436F6E6E65637465CA
:20444C006420616E64206164766572746973696E6700C046436F6E6E65637465642E2050A2
:20446C0065657220616464726573733A201B5B33326D25731B5B306D00C046C0436F6E6E4D
:20448C00656374696F6E2074696D6564206F757400C046C0446973636F6E6E65637465644A
:2044AC00202F2049646C65004164766572746973696E670047415020697320737461727461
:2044CC0065642E204F757220616464726573733A201B5B33326D25731B5B306D00C046C06A
:2044EC00EEEC0000A8EC0000400500003C05000044050000C4EC000084050000BCEC000092
:20450C004F160020F8B5A0F2013517460E46022D40F214818A4A8B498B4B2D1F0F2D04D90B
:20452C00143D4AD0AD1E1CD011E0DFE815F0C300BC00F400E400B300AB000701A2009A0097
:20454C00100010009200880079006F006300282880F2F480022E40F0F180398806F02AFFE3
:20456C00F8BD012E40F0EA8015462879012800F0E58051793878507181B9002800F0DE804C
:20458C009078012800F0A980042800F0A680062800F0A380052800F0A080F8BD3878002878
:2045AC0040F0CC809078032800F0A280072800F09F80052800F09C80F8BD012E40F0BE8065
:2045CC003878012840F0BA80154605F1F00008F0DBF9002840F0B2802C46002004F13E012F
:2045EC0004F04EFC002840F0A98004F1CC0008F095FBF8BD022E40F0A18038880A28C0F2CD
:20460C009D80B0F5486F00F3998015E0022E40F095803888B0F5FA7F80F290800880F8BD02
:20462C00022E40F08B8038880628C0F28780B0F5486F00F383801946891C0D4638E0022E6B
:20464C007CD13888062879DBB0F5486F76DC1946F3E7012E72D1387806286FDA891F0D4644
:20466C000EE0012E6AD13878042867DA15460B3506E0012E62D1387808285FDA15460A3523
:20468C002870F8BD012E59D13878042856DA1546093506E0012E51D1387804284EDC15462B
:2046AC0008352946DBE7022E48D13888154612352946B3E7012E41D11546687901283DD019
:2046CC0011793878107161B9002837D09078012803D0042818BF052830D1012007F0FEFF80
:2046EC00F8BD387850BB9078022818BF052825D108F012F9F8BD154605F1870400211F221C
:20470C00204604F03DFC39463246204603F004FF0020EE710EE0154605F1680400211F221B
:20472C00204604F02DFC39463246204603F0F4FE0120AE713146224605F0FCFDF8BDC046E0
:20474C000C100020501000204C1000202DE9F04F804609AF0846ADF1340D0A9397F808B031
:20476C000992B98808903F880B9105F031FB06467C497B48DFF8F491DFF8F4A1814ADFF8F7
:20478C0008C200240FF2681E002E0588C8888988079538D0761E1FD073480168D5B148461D
:2047AC000068014216D050460068014204D171480068008801420DD071484FF4EC7745A633
:2047CC00056800976D4B01966B4F02941A8838683BA3A8470A206FE005461046079E0168F3
:2047EC00002E37D048460068014233D050460068014204D15F480068008801422AD040F220
:20480C00D3134AA214E00D461046079E01680EB34846006801421DD050460068014204D112
:20482C00544800680088014214D04FF4E47341A2604606680093CDF804E00292CDF80C8007
:20484C000497CDF814B04D4B06941A884A4B18681BA3B047BD420EDB0B98E91B8142D4BFA5
:20486C008AB2021C0A9802800898C0683918099803F052FE1FE03C48079F0168D7B1484609
:20488C000068014216D050460068014204D139480068008801420DD039484FF4EF7727A6DD
:2048AC0005680097354B0196334F02941A88386803A3A847072420460DB0BDE8F08FC0466A
:2048CC00627574746F6E5F736572766963652E6300C046C0417474726962757465207761DD
:2048EC0073206E6F7420666F756E642E00C046C052656164417474724342203A20257320CA
:20490C00636F6E6E48616E646C653A202564206F66667365743A202564206D6574686F6483
:20492C003A2030782530327800C046C0425554544F4E3100425554544F4E3000416E206953
:20494C006E76616C6964206F666673657420776173207265717565737465642E00C046C0D5
:20496C00EEEC0000641A0020A4EC0000400500003C05000044050000C4EC0000840500001B
:20498C00BCEC0000A8EC0000C0EC00002DE9F04F804609AF0846ADF1340D0A9397F808B03F
:2049AC000992B98808903F880B9105F03DFA06467A498448DFF8EC91DFF8ECA17F4ADFF8B5
:2049CC0000C200240FF2641E002E058888884988079538D0761E1FD071480168D5B1484669
:2049EC000068014216D050460068014204D16F480068008801420DD06F484FF4E57744A6FD
:204A0C00056800976B4B0196694F02941A8838683BA3A8470A206FE005461046079E0168B4
:204A2C00002E37D048460068014233D050460068014204D15D480068008801422AD040F2DF
:204A4C00C51349A214E00D461046079E01680EB34846006801421DD050460068014204D1DF
:204A6C00524800680088014214D04FF4DD7340A2604606680093CDF804E00292CDF80C80CF
:204A8C000497CDF814B04B4B06941A88484B18681BA3B047BD420EDB0B98E91B8142D4BF67
:204AAC008AB2021C0A9802800898C0683918099803F032FD1FE03A48079F0168D7B14846EA
:204ACC000068014216D050460068014204D137480068008801420DD037484FF4E87726A6A7
:204AEC0005680097334B0196314F02941A88386803A3A847072420460DB0BDE8F08FC0462C
:204B0C00646174615F736572766963652E6300C041747472696275746520776173206E6F32
:204B2C007420666F756E642E00C046C052656164417474724342203A20257320636F6E6E49
:204B4C0048616E646C653A202564206F66667365743A202564206D6574686F643A203078ED
:204B6C002530327800C046C053747265616D00C0537472696E6700C0416E20696E76616C18
:204B8C006964206F666673657420776173207265717565737465642E00C046C024190020E7
:204BAC00A4EC0000400500003C05000044050000C4EC000084050000BCEC0000A8EC000015
:204BCC00C0EC0000EEEC00002DE9F04F804609AF0846ADF1340D0A9397F808B00992B98883
:204BEC0008903F880B9105F077F906467B497A48DFF8F091DFF8F0A1804ADFF804C200242C
:204C0C000FF2641E002E058888884988079538D0761E1FD072480168D5B148460068014260
:204C2C0016D050460068014204D170480068008801420DD0704840F2A11744A60568009714
:204C4C006C4B01966A4F02941A8838683BA3A8470A206FE005461046079E0168002E37D03F
:204C6C0048460068014233D050460068014204D15E480068008801422AD04FF4CE7349A294
:204C8C0014E00D461046079E01680EB34846006801421DD050460068014204D1534800685D
:204CAC000088014214D040F2911340A2604606680093CDF804E00292CDF80C800497CDF8EC
:204CCC0014B04C4B06941A88494B18681BA3B047BD420EDB0B98E91B8142D4BF8AB2021C29
:204CEC000A9802800898C0683918099803F014FC1FE03B48079F0168D7B148460068014275
:204D0C0016D050460068014204D138480068008801420DD0384840F2A71726A605680097BB
:204D2C00344B0196324F02941A88386803A3A847072420460DB0BDE8F08FC0466C65645F57
:204D4C00736572766963652E6300C04641747472696275746520776173206E6F7420666F3A
:204D6C00756E642E00C046C052656164417474724342203A20257320636F6E6E48616E64F5
:204D8C006C653A202564206F66667365743A202564206D6574686F643A2030782530327827
:204DAC0000C046C04C45443100C046C04C45443000C046C0416E20696E76616C6964206F45
:204DCC00666673657420776173207265717565737465642E00C046C0EEEC0000E81A002062
:204DEC00A4EC0000400500003C05000044050000C4EC000084050000BCEC0000A8EC0000D3
:204E0C00C0EC00002DE9F04F0128ADF1140D40F0F280DFF81492D9F8DC00012840F0E9800F
:204E2C000220C9F8DC0008F00FF80290012005F0BFFD20B101210646C9F8DC10D5E007F0AC
:204E4C00FFFF03906E484FF00008C0F80080012007F0D4FA012818BFCDF8008004D14046FA
:204E6C0005F06CF90120009066486E4CC0F800801934D4F8FF0F112007F084FE00280CBFB7
:204E8C0046460126102007F07DFE08B146F002060F2007F077FE08B146F004060B2007F004
:204EAC0071FE30B1584800685849006B0246088890470A2007F066FE0028404618BF0120A8
:204ECC004FF0805B0BF5DC7528B128685049006B0246088890474F480127076028688069A0
:204EEC00014646F0200088474B48076007F044FE00F001010191400815D2484807F0BDFD13
:204F0C008246BAF1040FF8D0BAF1010F06D1DBF8D80140680246414803219047404908688C
:204F2C0020F003000860404600F080F82868D4F8FF1F806B8047019801280ED0BAF1010F75
:204F4C0006D1DBF8D801406802463448394690473349086840F0030008602A480760286810
:204F6C0040690146304688470B2007F00BFE28B128682649C06A0246088890470A2007F0F3
:204F8C0001FE28B128682249C06A024608889047204807600322C9F8DC201F4BC3F8008003
:204FAC002868406B0146304688470128F8D1042005F0FEFC124807601A48D4F8FF1F0168A3
:204FCC008909FCD30098012802D1384605F0B6F807F0C6FD082005F0EBFC06460398C9F849
:204FEC00DC7007F029FF04F0DFFD029807F020FF02E0042600E00126304605B0BDE8F08F58
:20500C000C40094000022243B8010010D6E70000D2E700002820086080010443004003404E
:20502C002422084014100940141800202DE9F84FDFF8E8B10746ABF13500DFF8D49100688E
:20504C00800880F0D68006F065FF064677480830D0F8008000254FEA28725FEA985002F1F5
:20506C0001020AD2C6F13E0016F10A0F4FEAE000D8BF08208242B8BF021C624BD3F87C010A
:20508C00C0F3046007F0F2FC04461868C0F3044007F0ECFC12198246162A05DA12F10A0F3A
:2050AC00B8BF6FF0090200E01522574B574802F01F0141F4F8511980006810F0030F18BF31
:2050CC000125C00828BF45F002050FB145F00405494691F90700301A052804DA8879A84255
:2050EC0008BF888865D0DFF82CE10F2EA6F10F0C25DB0CEB0610A0F1F00C4FEA2C27072F69
:20510C0088BF07273C46062C88BF06245EF82400042303EB84037446E3581B1A03F0FF04B3
:20512C00E80824BFC3F307200444A80824BFC3F307400444680828BF04EB136401E00024D1
:20514C0027465EF827E0E8080EF0FF0324BFCEF307200344A80824BFCEF307400344680825
:20516C0028BF03EB1E63A4B2ACEB0727AAEB02007C43002804F1800403EB1423D8BF0120DE
:20518C00342208F0FF0742437A43B2FBF3F04FF6FF72824238BF101C802E80B2888005DA79
:2051AC0016F1800FB8BF6FF07F0600E07F26CE718D71194A12681F280A604FF0000208D386
:2051CC0040F2FF11814206D24008521C8142FBD301E01F208880124F0F38000942EAC002D8
:2051EC0047EA0200CBF8FB0F0026CBF8FF6FBDE8F88F0D4F0B4E494608203760891D0870FF
:20520C00BDE8F88F3C1100506E620840242208407C2D00209C13005008200940350009405C
:20522C0000E7A48030100940FDFDA400AC3F00502DE9F0411C4615468C4208BF854282BF54
:20524C0000230022E5E0002C08BF002D0AD100290EBF00286FF000006FF0000100F0E1F897
:20526C00BDE8F0815FF000085FF0000E002C08BF8D429CBF2C1C0025070C47EA01470E0C28
:20528C00B44208BFBD429EBF5FEA044444EA15445FEA0545070A47EA01670E0AB44208BFBF
:2052AC00BD429EBF5FEA042444EA15645FEA0525470847EAC1774E08B44208BFBD4200F23F
:2052CC009380870847EA81778E08B44208BFBD427CD8C70847EA4177CE08B44208BFBD4207
:2052EC0066D8070947EA01770E09B44208BFBD4250D8470947EAC1674E09B44208BFBD42F4
:20530C003AD8870947EA81678E09B44208BFBD4224D8C70947EA4167CE09B44208BFBD423B
:20532C000DD8E60146EA5566EF01B14208BFB84201D3C01BB14158EB08085EEB0E0EA60106
:20534C0046EA95664FEA8517B14208BFB84201D3C01BB14158EB08084EEB0E0E660146EAAD
:20536C00D5666F01B14208BFB84201D3C01BB14158EB08084EEB0E0E260146EA15762F0167
:20538C00B14208BFB84201D3C01BB14158EB08085EEB0E0EE60046EA5576EF00B14208BF6A
:2053AC00B84201D3C01BB14158EB08084EEB0E0EA60046EA9576AF00B14208BFB84201D386
:2053CC00C01BB14158EB08084EEB0E0E660046EAD5766F00B14208BFB84201D3C01BB141A7
:2053EC0058EB08085EEB0E0EA14208BFA84201D3401BA14158EB08085EEB0E0EA34208BFE0
:20540C00AA423EBF2D0A45EA0465240A89D3734642461E4617460B46024631463846BDE809
:20542C00F08170472DE9F04F0D468246DFF89881684CDFF8A491287809AF9B46ADF1240D10
:20544C000228079207D140466B680688188842F60211814224D0284604F0BAFC5B484746D4
:20546C0001683888D0B15A480068014216D02068014204D148460068008801420ED0594863
:20548C0004684FF4067733A600250097544B0196524F02951A88386829A3A0470A204CE086
:2054AC0051480068002E80462BD04948006818EA000F26D0206818EA000F05D1484600688B
:2054CC00008818EA000F1CD03879FE280CBF28A62EA6284604F07CFC444940F206230C68C1
:2054EC0000932DA201920290CDF80CA0002104963B4B0591394E06911A883068414610A33F
:20550C00A04738880090079A5B462946504604F097F906463648076876B96FB1786858B10C
:20552C00284604F055FCCDF800B07C68079B02464FF489515046A047304609B0BDE8F08F7C
:20554C00627574746F6E5F736572766963652E6300C046C041747472696275746520776150
:20556C0073206E6F7420666F756E642E00C046C02D20726573746F72696E6720626F6E641E
:20558C00656420737461746500C046C02D204F54412077726974650057726974654174747F
:2055AC00724342202843434344293A20706172616D3A20256420636F6E6E48616E646C6502
:2055CC003A20256420257300EEEC0000A4EC0000400500003C05000044050000C4EC00003B
:2055EC0084050000BCEC0000A8EC0000C0EC00006C1A00202DE9F843814607F0ABFA0021B3
:20560C0000B901216B4E30680028FCD06C4D01242D1DEF6A346009B107F0A2FADFF898810C
:20562C00C7F3072008F1BC01086007F093FA002100B9214630680028FCD02F68346009B129
:20564C0007F08EFAC7F38440C8F8C00007F082FA0146002001B92046014630680028FCD0F4
:20566C00ED69346009B107F07BFAC5F38120C8F8D000B9F5C061C8F8B81000F0968098F838
:20568C00D80068B9C8F8D410D8F8C000C8F8C800D8F8BC70C8F8C470D8F8D060C8F8CC606D
:2056AC00D8F8D410D8F8BC60002954BF02206FF00100454605F1C8031A6801EB410140182C
:2056CC00411000EB917002EBA0021A60D5F8C810C5F8C46000291CDD1E293DDDD5F8CC00D6
:2056EC0030B93429B4BF15391E21C5F8C81025E02A29BABFD5F8C8000B381E20C5F8C80057
:20570C00D5F8C4003F28B4BF401C3F20C5F8C4001FE0D5F8CC00032812D011F10B0FC6BF90
:20572C00D5F8C8000B30201CC5F8C800D5F8C4000028CCBF401E0020C5F8C400032009E07D
:20574C0011F1150FC6BFD5F8C8001530201CC5F8C8000020C5F8CC00B5F8C400174E302127
:20576C004FF47F4208230090304605F06DF8009404214FF400321123304605F065F8B5F8B7
:20578C00C80004214FF4F80212230090304605F05BF8B5F8CC0020214FF440620A230090F4
:2057AC00304605F051F8BDE8F883002088F8D800BDE8F88300800C401418002000A00C406D
:2057CC0000A00C402DE9F04F0D468246DFF89481674CDFF8A091287809AF9B46ADF1240DB2
:2057EC000228079207D140466B680688188842F60211814224D0284604F0C6FB5A48474627
:20580C0001683888D0B159480068014216D02068014204D148460068008801420ED05848C1
:20582C00046840F2272732A600250097534B0196514F02951A88386829A3A0470A204CE025
:20584C0050480068002E80462BD04848006818EA000F26D0206818EA000F05D148460068E9
:20586C00008818EA000F1CD03879FE280CBF27A62DA6284604F088FB434940F215230C6806
:20588C0000932CA201920290CDF80CA0002104963A4B0591384E06911A883068414610A39E
:2058AC00A04738880090079A5B462946504603F0C7FF06463548076876B96FB1786858B135
:2058CC00284604F061FBCDF800B07C68079B02464FF491515046A047304609B0BDE8F08FC6
:2058EC00736A6B5F736572766963652E6300C04641747472696275746520776173206E6F51
:20590C007420666F756E642E00C046C02D20726573746F72696E6720626F6E64656420738E
:20592C007461746500C046C02D204F54412077726974650057726974654174747243422020
:20594C002843434344293A20706172616D3A20256420636F6E6E48616E646C653A20256492
:20596C0020257300EEEC0000A4EC0000400500003C05000044050000C4EC000084050000F1
:20598C00BCEC0000A8EC0000C0EC0000801300202DE9FC416F4C204607F0BCF915460E4691
:2059AC00009007F061FA05F001078046B6F1FF3F0DD1606820B9B4F91200401C06B202E01D
:2059CC006068B0F91C6064490020C91C0870304606F008FA0326002800F0A4806168814245
:2059EC0070D0009FDFF848C1B84231D03FB100990A68904209D0096800290091F7D1832E97
:205A0C0044D0404607F02CFA40E0604606F08AFC00990868AA0803D202680B4601461A6075
:205A2C0000220A60009078B10C340146C87F40F00400C877684606F009FE0146204605F087
:205A4C00C1FD00980028F0D1404607F009FA1CE0604606F067FCA8083ABF206800680020C7
:205A6C002060404607F0FCF90C340099C87F40F00400C877684606F0E9FD0146204605F069
:205A8C00A1FD009808B1A808EFD2832629482C4A007890B928480078012846D02748FAF7C2
:205AAC0023FB0221104606F059FE2648007801283BD02548FAF718FB37E01046022106F0E5
:205ACC004DFE32E0A90803D32168009100262660C27F0121B9401143C17707F0B1F906463B
:205AEC00002F14BF19481A4806F028FA404607F0B7F9A80811D3009878B10C340146C87F6D
:205B0C0040F00400C877684606F0A0FD0146204605F058FD00980028F0D1304607F08CF95B
:205B2C00832602E0404607F09BF93046BDE8FC81502C0020AC2D0020AB2D0020492F000020
:205B4C00E82B0020AD2D0020397800000100020401000104382D0020B02C00202DE9F04F78
:205B6C00ADF1840D209000F06DFF04F049FE0024012804D106F03AFD022808BF012459499C
:205B8C000868C0F38150012805D151F80C1C0120090E884004435448007806F081FADFF8F2
:205BAC004C81DFF84CA1C8F8000030B15246FF2107467F1E02F8011BFBD1209909680025D4
:205BCC0001F0FF02FE2A1BD0DDF880C052462B46012701F0FF06FF2E0BD0B04203D907FAA1
:205BEC0006F6344201D0022079E001F0FF01354353545CF8041F5B1C01F0FF06FE2EEAD100
:205C0C00092001F053FF3B49209824220823086001A8002107F008F94FF0010901AA3E48BB
:205C2C008DF81C90494607F0FBF8D8F800303BB33A4E00274FF0040BBA4609FA07F0044283
:205C4C0018D1054204BF07F0FF0141F4C04104D027482099C05D51F82010274802F072F9BA
:205C6C00F8B24FF0FF3106F0D7FBD8F80030C6F800A001E0C6F800B07F1C361D9F42DCD30C
:205C8C000AA800213022082307F0C6F81B4D1D4A2878002410210AAB12901948009407F0EC
:205CAC00B7F816A828220823214607F0ADF8686816AA16491C9014481D94234607F0A0F853
:205CCC00134A52F80D0C494620F4F85040F4005042F80D0C0F4BC2F8FF1F2046196021B054
:205CEC00BDE8F08FB43F0050B22D00203C280020742C0020A02D0020007FC76764EC000004
:205D0C00B42C002041C40000B42B0020E5A800000D30094008000940D02C0020E82A0020C1
:205D2C002DE9F84F9A4693460D46044607F09CF8DFF85C810AAFB8F91220B8F91010009068
:205D4C0040F6F870891A0840082880F29280B8F91000401C6FF31F30A8F81000B8F910902B
:205D6C0006F08CFA064604F1700006F0DBFAB56086F81EB0C6F804A0F460A6F81C9097E83F
:205D8C000C0051A003C800251040F577D8F8002006F11007194087E80300002A5CD14046A8
:205DAC00314605F00FFC00285BD0A4F894904448F17F0778DFF8DCA041F08001F17784F8E9
:205DCC00965067B151460F784FB1344A3449324B0570012015700A781870521C0A7000987E
:205DEC0007F03EF8D8F8040000284ED15146087800282DD12B480078012846D007F034F8C5
:205E0C00054629480078F8B9B06804F0C1F9284B2C4A26491B681268086038B9284607F0B8
:205E2C001FF82448042106F099FC2EE0D0680968214C091AB1FBF3F1204607F00DF8204684
:205E4C0007F006F828461EE01C4901200870F9E7192006F0A9FD18E04046314605F0B2FB8B
:205E6C0050B9B8F9100000F6FF706FF31F30A8F810006FF0010905E0A4F89490F07F40F0D9
:205E8C008000F077009806F0EBFF4846BDE8F88F382D0020AD2D0020B12D0020AA2D002069
:205EAC00B32D0020AC2D0020AB2D0020882D002098EC0000E82B0020502C0020AE2D0020C2
:205ECC00B02D0020982D0020F1EFFF9F200000002DE9F04F694CA068ADF1440D002800F01D
:205EEC009D80DFF890914FF00A0B4FF0010A4FF000088FE006F0B8FF21785F4BCA0002EB86
:205F0C0041129A18B2E8E01007ABA3E8E010E0CAE0C364CA4F1C07F01F0183E8640004F1F8
:205F2C000C05627821708A4208BF84F802A006F097FFBDF82000002808BF2E1C09D003466C
:205F4C00A62138A2284606F0EFFA284606F0A4FC2E18079FB8B206F0B1F942A20CCA01F0A2
:205F6C00A1F842A20CCA01F09DF804F045FDA91B00902EA23B0CA631304606F0D5FA28461B
:205F8C0006F08AFC2A18A0682946521B06F058FEBDF82200E0B106F02FFFB9F8007037B96A
:205FAC0009990A9F0346009124A2019720E00A9900910B9F01970C9E02960D9B03930E9AB4
:205FCC0004920F9F0597109E0696099B02460FE00B9800900C9F01970D9E02960E9B0393B8
:205FEC000F9A0492CDF81480CDF818800A9B099A2846A62106F098FA284606F04DFC2A18AC
:20600C000D2002F8010B02F801BBA0682946521B06F016FEA07800283FF46CAF11B0BDE8A9
:20602C00F08FC04623253036752000C05B2025642E25303375205D2000C046C07B65767470
:20604C003A20666D743D25702C20617267733D5B307825782C2030782578202E2E2E5D7DD6
:20606C0000C046C0000000000000F03E0000000000408F408A0500000C0B0020540A0020CD
:20608C002DE9DF4F6548DFF88CC1DFF874B1DFF874A1DFF87491DFF87481DFF874E1078894
:2060AC0056480E1C32A313D10168002F5DD058460068014259D050460068014204D1484678
:2060CC0000680088014250D040F26B572CA62DE0012E17D0022E48D1002A46D10168002F56
:2060EC0043D05846006801423FD050460068014204D1484600680088014236D040F27C5747
:20610C0023A613E0A2B90168002F2ED05846006801422AD050460068014204D14846006877
:20612C000088014221D040F2715725A6002212E039480168CFB158460068014215D0504690
:20614C000068014204D148460068008801420CD040F2755722A66046046800970196774653
:20616C00464602923A883068A0470090BDE8DF8F70726F6A6563745F7A65726F2E6300C0A8
:20618C0050616972696E6720737461727465640052652D65737461626C6973686564207016
:2061AC00616972696E672066726F6D2073746F72656420626F6E6420696E666F2E00C04611
:2061CC0050616972696E6720636F6D706C65746564207375636365737366756C6C792E0099
:2061EC0050616972696E67206661696C65642E204572726F723A202530327800A8EC0000FF
:20620C00400500003C05000044050000C4EC000084050000BCEC0000A4EC0000EEEC000058
:20622C002DE9F0438046D8F80460D8F808700C46ADF1340D06F018FE3178012903D106F0ED
:20624C000FFE0020A3E04FF0010986F8009006F007FE207870706078B07060687060A06820
:20626C00B060E068F06020693061207D3075607D7075A07DB075A069B061207F3077607FCB
:20628C0000257077A07F35623563102186F83C10B0772C4674627463B462B46386F82C4040
:2062AC0086F82D4086F83D40786801F0FFFB404601F064FC404602F011FC78B935480068AF
:2062CC00C068014638688847786801F01BFB06F0CBFD347006F0C4FDA04657E001A82146A7
:2062EC003022082306F098FDCDF818803A7B09920095294AB96806F1680001AB06F088FD2E
:20630C0001A828220823214606F07EFD396907912249CDF8148006F1840001AA234606F0F8
:20632C006FFD01A824220823214606F07DFDB0788DF81C9038B906F1B800214601AA06F0F3
:20634C006FFD17483061707838B906F1D400214601AA06F065FD1348F06001A821462422C6
:20636C00082306F08DFD0694ADF8144006F1F0000D49CDF81C800A2201AB06F07DFD0B4A98
:20638C0006F154000421434605F000FE40460DB0BDE8F083D001001081750000B5A5000079
:2063AC0095CC00008DCC000015880000C5C900002DE9FC415E4C574D574EDFF860815A4F45
:2063CC0094F8E410481E0B2861D8DFE800F07B2C43062343062343067664042907D00122DF
:2063EC000A2945F8212C14BF0220032004E02021012045F8211C024684F8E200002045F8F9
:20640C00390C0827C5F8FF7FC5F8F37F45F8392CBDE8FC81052914BF09200620002584F8DD
:20642C00E400356070E094F8E1700120383D002FC5F81B0004BF0620002102D00021F160BF
:20644C00032084F8E400032045F8010C31603068800859D294F8E400012503280DD00021A5
:20646C00404660220523009104F0EEF994F8E400062814BF0A200720D1E702200090002127
:20648C0060220523404604F0DFF90420C7E706F0AFFCBDE8FC812249002622480E600125D0
:2064AC0005600E2001F02EFA022005F0B1FA84F8E45084F8E360BDE8FC81002038600C25E8
:2064CC0078601FE01948006800680146202088472C3D41F61D560F2000214FF4C072072350
:2064EC0045F8010C4046C5F803600225009504F0ABF9404600214FF4C072072304F0AEFB69
:20650C000120386084F8E45004F1780006F0A0FCBDE8FC8139400C4038600C4000A00C4050
:20652C002C500C4004800C4034600C40A0010010141800202DE9F04F5D4C27690346ADF165
:20654C001C0D002F68D05148DFF848A1DFF84891DFF84881DFF848B1DFF848C1DFF848E146
:20656C0006882FA23BBB4A490968002E4ED05046006801424AD048460068014204D140467B
:20658C0000680088014241D0704640F215560568009627A3019338790290A07803900026E3
:2065AC000496634605965F4606961E88386813463246A8472AE03D48016816B350460068EB
:2065CC0001421ED048460068014204D1404600680088014215D0704640F21A560568009677
:2065EC001EA6019638790290039300260496674605965B46069618683E8813463246A84710
:20660C002769397907F1080005F09CFF206905F0C9FF00202061A07007B0BDE8F08FC046C4
:20662C0070726F6A6563745F7A65726F2E6300C053656E74206D65737361676520776974D4
:20664C0068206F70636F6465203078253032782E20417474656D707420256400476176650C
:20666C00207570206D6573736167652077697468206F70636F6465203078253032782E2079
:20668C005374617475733A20256400C0EEEC0000A8EC0000400500003C050000440500008A
:2066AC00C4EC000084050000C0EC0000A4EC000008020020F8B5414C201D0368B3F1FF3F6B
:2066CC0008BF002304F09CF8002876D13C4E20683468070F04F0FF04802C28BF002404F067
:2066EC008FF84FF0FF3578B1401E07D0401E012802D9801E13D014E08FB112E0381C5CD0AD
:20670C00801E0ED114340BE03846401E55D0801E53D0001F51D0401E03D1163400E00A3421
:20672C0065B2162D49DB27482749002501270560264E0F60264C376020680028FCD1274A64
:20674C00161D2449244F306820F0030001433868C0080CD2106810F0030F0AD041F003004D
